:020000040800F2
:10000000080A002035010008590100085B010008BA
:100010005D0100085F0100086101000800000000A8
:100020000000000000000000000000006301000864
:100030006501000800000000670100086901000870
:100040006B010008B1300008453100084F3100084D
:100050006D3100087731000881310008F11A00087D
:100060008D1B0008B11B0008D51B0008F91B0008F8
:100070001D1C00086B0100086B010008DD2400084E
:10008000052500085919000881190008A919000858
:10009000D1190008F9190008211A0008491A0008A6
:1000A000711A0008991A0008E118000809190008D7
:1000B00031190008C12E0008ED2E00086B01000860
:1000C0006B0100086B0100086B0100086B01000860
:1000D0006B0100086B0100086B010008151B00088C
:1000E000692D000800000000A50C0008ED0E0008B6
:1000F0006B0100086B0100086B0100082D2F000840
:10010000452F00085D2F0008752F00088D2F00086F
:10011000A52F00086B0100086B010008DFF810D064
:1001200000F0E6FB00480047613C0008AFF30080A8
:10013000080A00200D490E4808604FF08041086809
:1001400040F4803008600B49086820F08050086057
:100150000948804709480047FEE7FEE7FEE7FEE75B
:10016000FEE7FEE7FEE7FEE7FEE7FEE70C000040E5
:1001700000FF0103B0880040B92E00081D010008EF
:10018000D2B201E000F8012B491EFBD270470022D9
:10019000F6E710B513460A4604461946FFF7F0FF86
:1001A000204610BD10B5002200E0521C835C8C5C20
:1001B000A34201D1002BF8D1D8B2E1B2401A10BD50
:1001C000F0B480EA0102D40F4200B2EB410F02D238
:1001D0000246084611464A0042D0C30DDDB2C1F3C3
:1001E000C752AD1A202D35DAC1F3160141F40002D1
:1001F00004B15242C5F1200602FA06F12A41104428
:10020000B3EBD05F23D0C4B1012DA0EBC35009DC08
:10021000F0BC4FF0004202EAC352DBB200F500002E
:1002200000F082B9400000F1807000EBC350A0F1F3
:10023000807040EAD170490009E0490841EAC07184
:10024000A0EBC35000F50000400800EBC350F0BC29
:1002500000F061B96142012202EB4101001BF6E7A7
:10026000F0BC704781F00041AAE780F00040A7E7AA
:1002700080EA010210B502F00043400022D04A009B
:100280001FD0010E01EB1261C0F35600C2F35602FB
:1002900040F4000042F40002A0FB022000047F3979
:1002A000140400D0401C50EA124001D44000491E02
:1002B000C2B20C0604EBD010401C4008802A02D0C9
:1002C00003E0002010BD20F00100002900DA00202A
:1002D000184310BD30B480EA010202F0004530F04E
:1002E000004221F0004013D090B1C30DD40DC2F3F1
:1002F0001601C0F31600E41A41F4000140F40002B4
:100300007D34914201D3641C00E04900002C02DAE4
:1003100030BC002070474FF400000023914201D30D
:10032000891A034340084FEA4101F7D151B1914284
:1003300002D14FF0004105E002D24FF0010101E08F
:100340006FF0010103EBC450284430BC00F0E3B867
:100350002DE9F04D81EA030404F0004B21F0004543
:1003600014464FF0000A23F0004150EA050220D065
:1003700054EA01021DD0C5F30A570246C5F3130320
:10038000C1F31300C1F30A5640F4801543F48013FF
:10039000A7EB0608101BD64608F2FD3873EB0500E4
:1003A00002D308F1010801E092185B41B8F1000F97
:1003B00003DA00200146BDE8F08D00204FF48011E3
:1003C000064684460EE0171B73EB050705D3121B88
:1003D00063EB050306434CEA010C49084FEA300081
:1003E00092185B4150EA0107EDD152EA030012D0A6
:1003F00082EA040083EA0501084305D0101BAB41E3
:1004000006D20122002306E000224FF0004302E062
:100410006FF0010253101AEB06004CEB085110EB81
:100420000A0041EB0B01BDE8F04D00F0ABB896239C
:100430000022114600F078B80EB540F23341029127
:100440000021CDE900110A460B4600F0AAF803B0DE
:1004500000BD20F00040C10DC0F3160040F40000C4
:100460007F2901DA00207047962903DCC1F196014B
:10047000C840704796398840704720F00040C20D50
:10048000C0F3160040F400007F2A02DA0020014683
:1004900070470021962A03DCC2F19602D0407047D3
:1004A000963A00F019B8C1F30A5210B5C1F313011E
:1004B00040F2FF3341F480119A4201DA002010BD6E
:1004C00040F233439A42A2F2334203DC524200F03C
:1004D00012F810BD904010BD202A04DB203A00FA2B
:1004E00002F1002070479140C2F1200320FA03F38B
:1004F000194390407047202A04DB203A21FA02F089
:100500000021704721FA02F3D040C2F1200291404D
:100510000843194670470029A8BF7047401C49008E
:1005200008BF20F00100704710B4B0FA80FC00FA58
:100530000CF050EA010404BF10BC704749B1CCF183
:10054000200421FA04F411FA0CF118BF012121430F
:100550000843A3EB0C01CB1D4FEA00614FEA1020CA
:1005600042BF002010BC704700EBC350104400296C
:10057000A4BF10BC7047401C490008BF20F0010018
:1005800010BC704710B5141E73F1000408DA401C4B
:1005900041F1000192185B411A4301D120F00100A2
:1005A00010BD2DE9F04D92469B4611B1B1FA81F292
:1005B00002E0B0FA80F220329046FFF78DFF044649
:1005C0000F4640EA0A0041EA0B0153465A460843E7
:1005D00013D0114653EA010019D0C8F14002504629
:1005E000FFF789FF05460E46504659464246FFF73B
:1005F00073FF084305D0012004E020463946BDE8DA
:10060000F08D0020054346EAE0762C4337430A98F4
:100610006305E40AA0EB08000022FD0A44EA4754FF
:100620000A3002D500200146E9E7010510196941A9
:10063000DDE9084500196941BDE8F04DA2E72DE963
:10064000FE4F804681EA0300C00F0C46009021F067
:10065000004123F00045B8EB0200A94105D2404615
:10066000214690461C460B46024623F000401043AC
:1006700047D0270DC7F30A00C3F30A510290401A6E
:10068000019040286BDAC3F3130040F4801B0098FC
:10069000924620B10023D2EB030A63EB0B0B0198C7
:1006A0005946C0F140025046FFF716FF06460D4678
:1006B00050465946019A00F02DF910EB08006141AF
:1006C000002487EA115284EAE7731A4340D0009A63
:1006D00062B3019A012A4FEA075215DC001B61EB55
:1006E00002014FF0004202EA0752CDE90042001C2D
:1006F00041F5801132462B46FFF753FF03B0BDE8AA
:10070000F08F40462146F9E7001B61EB0201001C17
:1007100041F5801300185B412018A2F5001747EB44
:10072000030140EAD570B6196D4111E06D084FEA3A
:10073000360645EAC0754FEA0752001B61EB02011D
:10074000001C41F5801149084FEA30000019514161
:1007500032462B4603B0BDE8F04FFFF713BF0098B9
:10076000012240000023D0EB020263EBE07300980B
:1007700021464FEAE074B8EB000061EB0401E9E7C1
:1007800083F000435BE781F0004158E72DE9FE4F1D
:1007900081EA030404F0004421F0004100944FF08A
:1007A000000B23F0004350EA01045ED052EA030438
:1007B0005BD0C3F30A54C1F30A552C44A4F2F334BA
:1007C0000194A0FB0254C1F3130141F48011C3F35F
:1007D000130343F4801301FB024400FB034E840A1D
:1007E000970A44EA815447EA8357A4FB07680295B5
:1007F0008D0A05FB07854FEA932C04FB0C54270553
:10080000029D4FEA065847EA1637B5EB08056EEB2E
:10081000070C870E920E47EA811742EA8312A7FB64
:100820000201B6EB0B0164EB00042B0D43EA0C3321
:100830005E1844EB1C50DA465146E7FB0201C5F353
:1008400013044FEA0B3343EA14534FEA0432019C7A
:1008500043EA0603A4F10C040294009CCDE900B421
:10086000FFF79FFE03B0BDE8F08F00200146F9E7D7
:1008700070B521F0004303430CD0C1F30A550024A6
:10088000D5EB040564EB0403D617AD1AB34102DBC4
:100890000020014670BD201841EB025170BD0EB51D
:1008A000C10F80EAE0700844CA07002140F23343D8
:1008B0008DE80E000A460B46FFF773FE03B000BD3D
:1008C00030B5041E71F1000404DB4FF000444042D7
:1008D00064EB0101141E73F1000405DB1C464FF0AC
:1008E0000043524263EB04038B4208BF824230BD97
:1008F000064C074D06E0E06840F0010394E807006D
:1009000098471034AC42F6D3FFF70CFC584100086E
:1009100078410008202A06DBCB17203A41FA02F082
:1009200043EAE07306E041FA02F3D040C2F120024C
:1009300091400843194670470EB50020019002907F
:1009400000902049204800F011FE1F4802F0FEF8F8
:10095000019820F00700401C0190019820F0080049
:100960000190019820F0100010300190019820F0C3
:10097000200020300190019820F040000190019863
:1009800020F080000190019820F48070019001987F
:1009900020F40070019007208DF8000010208DF8E1
:1009A000010005208DF8020003208DF803006A463F
:1009B00001A9054800F028FC0021034800F06EFE64
:1009C0000EBD0000B50C0008007800400EB50020F8
:1009D0000190029000902049204800F0C7FD1F4878
:1009E00002F0B4F8019820F00700401C0190019833
:1009F00020F008000190019820F0100010300190C4
:100A0000019820F0200020300190019820F0400053
:100A10000190019820F080000190019820F48070EE
:100A20000190019820F40070019007208DF80000DB
:100A300010208DF8010005208DF8020003208DF8AC
:100A400003006A4601A9054800F0DEFB00210348C7
:100A500000F024FE0EBD0000FD0E0008007C0040EA
:100A600010B500211E2001F097FA00211F2001F08F
:100A700093FA01211E2001F013FA01211F2001F039
:100A80000FFA01211E2001F0E3FC00211F2001F0DC
:100A9000DFFC03211E2001F03FFA03211F2001F09B
:100AA0003BFA10BD00B585B014216846FFF76FFB17
:100AB0002D4802F077F80B200290132003900020BD
:100AC0000490009820F00100401C0090009820F055
:100AD00002000090009820F00400001D0090009893
:100AE00020F008000090009820F01000009000987E
:100AF00020F020000090009820F040000090009826
:100B000020F080000090009820F480700090009801
:100B100020F400700090009820F48060009000980D
:100B200020F400600090009820F48050009000981D
:100B300020F400500090009820F48040009000982D
:100B400020F400400090009820F48030009000983D
:100B500020F4003000907F2001906946024801F0A7
:100B60000BFD05B000BD000000F000401CB50020EA
:100B7000009001900A490B4802F08EFA094802F0F1
:100B800021F801208DF800008DF8010000208DF87B
:100B90000200054801906946024802F01FFA1CBD98
:100BA000D92E000800110140FF6BDC021CB50020AB
:100BB000009001900A490B4802F06EFA094802F0D1
:100BC00001F801208DF800008DF8010000208DF85B
:100BD0000200054801906946024802F0FFF91CBD79
:100BE000052F000810110140FF6BDC020EB500203C
:100BF0000090019002901249124802F0C7FC11487F
:100C000001F0FCFF4FF41650009008208DF804000E
:100C100001208DF8050000208DF8060001208DF8D8
:100C2000070000208DF808008DF809006946054886
:100C300002F042FB0121034802F0F7FC0EBD000068
:100C4000BD300008008001400EB5002000900190EA
:100C500002901249124802F099FC114801F0CEFFAF
:100C60004FF4E130009008208DF8040001208DF849
:100C7000050000208DF8060001208DF807000020F7
:100C80008DF808008DF809006946054802F014FB4C
:100C90000121034802F0C9FC0EBD000059310008D3
:100CA00000A0014010B5024800F044FA10BD000059
:100CB0000078004070B504460E46154604F08000EA
:100CC00000287CD0284600F0A7FB0028F9D07E49F8
:100CD000284600F0A7FB7C48006820F060407B4974
:100CE00088426DD17A48006861F31C007849086039
:100CF00075480068810F7648006861F39E707449FA
:100D0000086071480068410F7148006861F35D70C8
:100D10006F4908606C480079496860F303016C48CA
:100D200041606948007900F00F006A4908700020AE
:100D30006949087021E06448807A6849096800EBD5
:100D40000120664908606048407A096800EB01208C
:100D5000624908605C48007A096800EB01205F493D
:100D600008605948C079096800EB01205B490860B8
:100D700059480078401C58490870574800780428A2
:100D8000D9DB57480068B0F1004F07D354480068DA
:100D9000404252490968081A5249086050480068A0
:100DA0006FF00041884206D24D4800684B490968FF
:100DB00008444C49086000204749087019E080E069
:100DC0003AE0484800784049C87146480088010A1E
:100DD0003D48017243480068010C3B48417241485C
:100DE0000068000E384988723B480078401C3A4938
:100DF0000870394800780428E3DB00203649087081
:100E00000EE03148C01D34490978415C3048C01DAE
:100E1000314A1278815430480078401C2E490870BD
:100E20002D4800782B4909788842EADB00222849BE
:100E30002D4800F02FFB44E023480068244909684E
:100E400060F31C01224801601F480068810F2048A0
:100E5000006861F39E701E4908601B480068410FDE
:100E60001B48006861F35D701949086016480079F5
:100E7000496860F30301164841601348007900F0A7
:100E80000F00144908700020134908700EE00E4846
:100E9000C01D11490978415C0D48C01D0E4A1278E9
:100EA00081540D480078401C0B4908700A480078AE
:100EB000084909788842EADB002205490A4800F01F
:100EC000E9FA002070BD00002001002000E5FE18B6
:100ED000300100201900002018000020040000202C
:100EE0000000002008000020007C004010B50248EF
:100EF00000F020F910BD0000007C004070B50446F1
:100F00000E46154604F0800000287CD0284600F0EC
:100F100083FA0028F9D07E49284600F083FA7C48FD
:100F2000006820F060407B4988426DD17A480068B3
:100F300061F31C007849086075480068810F7648A5
:100F4000006861F39E707449086071480068410F41
:100F50007148006861F35D706F4908606C48007902
:100F6000496860F303016C4841606948007900F00A
:100F70000F006A49087000206949087021E0644840
:100F8000807A6849096800EB01206649086060487A
:100F9000407A096800EB0120624908605C48007AE9
:100FA000096800EB01205F4908605948C079096869
:100FB00000EB01205B49086059480078401C584903
:100FC0000870574800780428D9DB57480068B0F10A
:100FD000004F07D354480068404252490968081A34
:100FE00052490860504800686FF00041884206D2BC
:100FF0004D4800684B49096808444C490860002086
:101000004749087019E080E03AE0484800784049D4
:10101000C87146480088010A3D480172434800688B
:10102000010C3B48417241480068000E3849887203
:101030003B480078401C3A49087039480078042839
:10104000E3DB0020364908700EE03148C01D34490A
:101050000978415C3048C01D314A127881543048CB
:101060000078401C2E4908702D4800782B490978DB
:101070008842EADB002228492D4800F00BFA44E0C0
:10108000234800682449096860F31C012248016074
:101090001F480068810F2048006861F39E701E4958
:1010A00008601B480068410F1B48006861F35D70D1
:1010B0001949086016480079496860F30301164829
:1010C00041601348007900F00F00144908700020B7
:1010D000134908700EE00E48C01D11490978415CA3
:1010E0000D48C01D0E4A127881540D480078401CEE
:1010F0000B4908700A480078084909788842EADBF9
:10110000002205490A4800F0C5F9002070BD000022
:101110004001002000E5FE18100100201900002009
:10112000180000200400002000000020080000201B
:10113000007800402DE9F0470446A4200059C0F390
:101140000726A4200059C0F307474FF000082046A7
:1011500001F0BAF981462B4800EBC905A4200059DB
:1011600066F30F20A4210851A420005967F317400B
:10117000085106F0730010B907F0150098B306F097
:10118000020068B32878C0F3800048B3D4F8A00008
:10119000C0F3C01020B3D4F8A00000F00100F8B9EB
:1011A000D4F8A00020F08000C4F8A000287800F057
:1011B000010040B154F8A00F40F01001206861F325
:1011C000070044F8A0092878C0F3400040B154F863
:1011D000A00F40F00801206861F3070044F8A0095F
:1011E00046EA07206880686850B146EA072242EA6A
:1011F0000840B0221259C2F3421122466B68984748
:10120000BDE8F087880100202DE9F84F04460D461F
:101210009146204601F058F906460027DFF8F08194
:101220004FF0FF0A022E73DA002D71D0B9F1000FD2
:10123000FBD0BA460020774901EBC60148802878E8
:10124000C0F3C00028B100221146304600F0B7FAC2
:1012500004E001221146304600F0B1FA06F11C010B
:10126000C8B2012100F080FA06F11E01C8B20121C6
:1012700000F07AFA06F11C01C8B2012100F00EFB61
:101280004946204600F04EF9686808B1D5F8048058
:10129000002718E007EB470008EB8000407800903B
:1012A00007EB470008EB8000836807EB470008EB7B
:1012B0008000426807EB470018F82010204600F035
:1012C0006BF9781CC7B2102FE4DBD4F8A00020F033
:1012D0008000C4F8A000A420005920F0704000F164
:1012E0000040A4210851A420005920F0706000F1B2
:1012F00030600851287800F00700032809D1D4F89D
:10130000A00020F4804000F58040C4F8A00019E05F
:101310007BE0287800F00700042807D1D4F8A0006B
:1013200020F020002030C4F8A0000BE0287800F066
:101330000700052806D1D4F8A00020F04000403076
:10134000C4F8A00028784109324850F8360061F30B
:101350008200304941F83600287881092D4850F83C
:10136000360061F300002B4941F8360054F8A01F05
:1013700060F3041121602878C109264850F836002E
:1013800061F34100234941F836004108206861F3C8
:10139000C30020602888010A206861F3555020604E
:1013A0002888410A206861F39E7044F8A0092878D3
:1013B000C0F3001048B3A420005920F0FF00FE3015
:1013C000A4210851A420005920F47F0000F5281022
:1013D00008512878C0F300100E4901EBC60148708F
:1013E00006F12A0148B200280DDB00BF00BF00F063
:1013F0001F02012191404209920002F1E022C2F84D
:10140000001100BF00BF00BF00BF5046BDE8F88F0D
:10141000A83F0008880100200146D1F8A000C0F3D1
:101420000160704710B50246002000BFD2F8A0301E
:10143000C3F301630BB901202BE013680C6863F35D
:101440001C040C6053689C090B6864F35D730B60AB
:101450005368DC090B6864F39E730B6053684C6837
:1014600063F303044C600B68C3F340734BB90B790F
:1014700003F00F032BB19368C1F80730D4680B2336
:101480005C50D2F8A03023F0805303F18053C2F8AF
:10149000A03010BD2DE9F04104460E461546002748
:1014A0002946204600F038F9B0BB2A46314620468E
:1014B00000F0B4F829460020D4F8A020C2F340324E
:1014C0000AB101221CE041B9D4F8A02022F48052D4
:1014D00002F58052C4F8A02011E040B1D4F8A02059
:1014E00022F4806202F58062C4F8A02007E0D4F8FC
:1014F000A02022F4007202F50072C4F8A02000229D
:1015000012B16FF001070AE02946204600F0EAF820
:1015100028B16FF0020702E0FFE74FF0FF373846CF
:10152000BDE8F081D0F8A02022F080028032C0F81F
:10153000A0204B78A822125863F30702A8231A5060
:101540008B78A822125863F30E22A8231A50CB7866
:10155000A822125863F31642A8231A500B78A82227
:10156000125863F31F62A8231A5070472DE9F04107
:1015700005460C46284600F0A7FF0646002724B182
:10158000044800EBC600446000E001273846BDE88F
:10159000F081000088010020F0B50446059D002080
:1015A000102904DAD4F8A060C6F3C0160EB90120E1
:1015B00033E035B3B426365961F30706B4273E51FC
:1015C000B826365962F31E06B8273E5141F020076F
:1015D000B426365967F30706B4273E51B826365964
:1015E00063F31E06B8273E5101268E40B4273F59AB
:1015F00046EA1747B426365967F31F46B4273E51CB
:101600000BE0B4263659360C01278F40BE43B42771
:101610003F5966F31F47B4263751F0BD10B532B9B4
:10162000D0F8A03023F40043C0F8A03007E0D0F891
:10163000A03023F4004303F50043C0F8A0300B684A
:10164000046D63F31C0404650B685C0F436D64F365
:10165000861343650B689C0F436D64F3C7134365A2
:101660000B79446D63F3030444650B68C3F3407363
:101670004BB90B7903F00F032BB1D1F80740846508
:101680000B235C58C465012A07D1D0F8A03023F49D
:10169000800303F58003C0F8A03010BD024600208F
:1016A000C9B1D2F8A030C3F3003393B9D2F8A03057
:1016B000C3F380236BB9D2F8A030C3F3402343B9FE
:1016C000D2F8A03023F4005303F50053C2F8A03041
:1016D00007E0012005E0D2F8A03023F40053C2F85F
:1016E000A030704770B505460C460026284600F02D
:1016F000EBFE084901EBC000407848B924B9284600
:1017000001F0A0FF064603E0284601F0BBFF0646B5
:10171000304670BD8801002030B502460B460021DE
:10172000002063B900BFD2F8A040C4F3003404B96C
:1017300004E00C46491C0B4DAC42F4D30DE000BF55
:10174000D2F8A040C4F30144032C00D004E00C46BE
:10175000491C044DAC42F3D300BF024CA14200D35C
:10176000012030BDA086010070B503460C46002064
:1017700000211A46202A01D20B4907E0242A03D26D
:101780000949091D203A01E04FF0FF3059B12CB151
:101790000D680126964035430D6004E00D68012672
:1017A0009640B5430D6070BD0400004010B504467E
:1017B000234603220821C80601F084FF10BD70B53E
:1017C00006460C46154666B9234601221A214807EB
:1017D00001F078FF2B4602221C21500701F072FF16
:1017E0000BE0234601221B21900701F06BFF2B46E3
:1017F00002221E21500701F065FF70BD10B504469E
:10180000234601221421080701F05CFF10BD0000EF
:1018100010B50446234608221121024801F052FF68
:1018200010BD00009088004010B5044623460222F7
:101830001C21024801F046FF10BD000090880040C6
:1018400010B50446234602221E21024801F03AFF49
:1018500010BD00009088004070B504460D46234638
:1018600001221821900701F02DFF2B46022211467C
:10187000500701F027FF70BD10B50446234604222F
:101880001146100701F01EFF10BD10B50446234697
:1018900002220021500701F015FF10BD70B503466C
:1018A0000C46002000211A46202A01D20B4907E0ED
:1018B000252A03D20949091D203A01E04FF0FF30E3
:1018C00059B12CB10D680126964035430D6004E0F6
:1018D0000D6801269640B5430D6070BD18000040AC
:1018E00010B5074800F0F6F804460648806A28B1AB
:1018F000044800222146836A0148984710BD000031
:10190000802201409801002010B5074800F0E2F85D
:1019100004460648C06A28B1044800222146C36A2A
:101920000148984710BD0000C022014098010020E6
:1019300010B5074800F0CEF804460648006B28B101
:10194000044800222146036B0148984710BD00005F
:10195000002301409801002010B5074800F0BAF8B4
:1019600004460648406828B10448002221464368DE
:101970000148984710BD0000402001409801002018
:1019800010B5074800F0A6F804460648806828B15C
:1019900004480022214683680148984710BD000092
:1019A000802001409801002010B5074800F092F80F
:1019B00004460648C06828B1044800222146C3688E
:1019C0000148984710BD0000C02001409801002048
:1019D00010B5074800F07EF804460648006928B1B3
:1019E00004480022214603690148984710BD0000C1
:1019F000002101409801002010B5074800F06AF866
:101A000004460648406928B104480022214643693B
:101A10000148984710BD0000402101409801002076
:101A200010B5074800F056F804460648806928B10A
:101A300004480022214683690148984710BD0000F0
:101A4000802101409801002010B5074800F042F8BD
:101A500004460648C06928B1044800222146C369EB
:101A60000148984710BD0000C021014098010020A6
:101A700010B5074800F02EF804460648006A28B161
:101A8000044800222146036A0148984710BD00001F
:101A9000002201409801002010B5074800F01AF814
:101AA00004460648406A28B1044800222146436A99
:101AB0000148984710BD00004022014098010020D5
:101AC000816821F00201891C8160816821F0020196
:101AD0008160704770B50446256805F0040010B1B8
:101AE0002046FFF7EDFF2068A8432060284670BD20
:101AF00010B5002000F0E8F804460548006818B169
:101B00000348016820468847204600F0C3F810BD0E
:101B10006C0100202DE9FF5F00F04EF903900020DA
:101B2000029082464FF4806A29E0039800EA0A0096
:101B300018B300204FF0804101F0E4FE06460F4646
:101B40005046FEF779FCCDE9000101F0DBFE80464E
:101B500032463B46FEF7FCFB0446FEF7A4FC8346F8
:101B600000F0B2F802900848806918B1064881690F
:101B700002988847029800F08DF84FEA4A0ABAF5B1
:101B8000803FD2D3BDE8FF9F6C01002010B501203B
:101B900000F09AF804460548406818B103484168C7
:101BA00020468847204600F075F810BD6C010020E3
:101BB00010B5022000F088F804460548806818B186
:101BC0000348816820468847204600F063F810BD2E
:101BD0006C01002010B5032000F076F8044605489B
:101BE000C06818B10348C16820468847204600F005
:101BF00051F810BD6C01002010B5042000F064F80D
:101C000004460548006918B1034801692046884721
:101C1000204600F03FF810BD6C0100202DE9FF5F69
:101C200000F0CAF803900020029082464FF0200A8C
:101C300029E0039800EA0A0018B300204FF0804121
:101C400001F060FE06460F465046FEF7F5FBCDE973
:101C5000000101F057FE804632463B46FEF778FB16
:101C60000446FEF720FC834600F02EF80290084858
:101C7000406918B10648416902988847029800F007
:101C800009F84FEA4A0ABAF5806FD2D3BDE8FF9F40
:101C90006C0100200146002201F00F02012090405B
:101CA000014B186000207047600108200146486819
:101CB00070470000034A02EBC1030CCBC0E90023CC
:101CC00070470000503D000810B501460A46002349
:101CD0000024102A65D2DFE802F0080D12171C223A
:101CE000282E343A40464C52585E3248006800F084
:101CF0000F0359E02F480068C0F3031354E02D4848
:101D00000068C0F303234FE02A480068C0F30333A0
:101D10004AE02848001D006800F00F0344E0254811
:101D2000001D0068C0F303133EE02248001D006858
:101D3000C0F3032338E01F48001D0068C0F30333DD
:101D400032E01C480830006800F00F032CE019480E
:101D500008300068C0F3031326E016480830006816
:101D6000C0F3032320E0134808300068C0F30333B6
:101D70001AE010480C30006800F00F0314E00D4822
:101D80000C300068C0F303130EE00A480C30006802
:101D9000C0F3032308E007480C300068C0F30333A6
:101DA00002E04FF6FF7010BD00BF02EB03142046A7
:101DB000F9E7000070010820014800687047000042
:101DC000600108202DE9F041044600250026002787
:101DD000250904F00F06052D21D2DFE805F00308E0
:101DE0000E141A001348FFF761FF07461BE0114865
:101DF0003030FFF75BFF074615E00E486030FFF715
:101E000055FF07460FE00B489030FFF74FFF07469E
:101E100009E00848C030FFF749FF074603E04FF0EC
:101E2000FF30BDE8F08100BF27FA06F000F00100A6
:101E3000F7E700000000082070B5044600250026E2
:101E4000250904F00F06052D21D2DFE805F003086F
:101E50000E141A003146114800F0B4F81AE0314669
:101E60000E48303000F0AEF814E031460B486030D8
:101E700000F0A8F80EE031460848903000F0A2F8D3
:101E800008E031460548C03000F09CF802E04FF011
:101E9000FF3070BD00BF0020FBE7000000000820FD
:101EA0002DE9F04104460D4600260027260904F0DE
:101EB0000F07052E26D2DFE806F0030910171E00D3
:101EC0002A463946134800F0CFF91FE02A46394622
:101ED0001048303000F0C8F918E02A4639460D485D
:101EE000603000F0C1F911E02A46394609489030C7
:101EF00000F0BAF90AE02A4639460648C03000F038
:101F0000B3F903E04FF0FF30BDE8F08100BF0020DF
:101F1000FAE70000000008202DE9F04104460D46D4
:101F200000260027032D02D9701EBDE8F081260986
:101F300004F00F07052E26D2DFE806F0030910177C
:101F40001E002A463946134800F02EF91EE02A46A4
:101F500039461048303000F027F917E02A46394654
:101F60000C48603000F020F910E02A463946094854
:101F7000903000F019F909E02A4639460548C0308A
:101F800000F012F902E04FF0FF30CEE700BF002072
:101F9000CBE70000000008207FB504460D46002076
:101FA0000290039021466846FFF784FEDDE90001B8
:101FB000CDE902012A46DDE9020100F04BFE0020D6
:101FC00004B070BD102972D2DFE801F0080E141AB7
:101FD00020262C32383F464D545B6269026922F05C
:101FE0000102521C026163E0026922F00202921CAB
:101FF00002615DE0026922F00402121D026157E0F5
:10200000026922F008020832026151E0026922F0FE
:102010001002103202614BE0026922F020022032ED
:10202000026145E0026922F04002403202613FE075
:10203000026922F080028032026139E0026922F4F2
:10204000807202F58072026132E0026922F400724D
:1020500002F5007202612BE0026922F4806202F54F
:102060008062026124E0026922F4006202F50062EB
:1020700002611DE0026922F4805202F58052026181
:1020800016E0026922F4005202F5005202610FE0EC
:10209000026922F4804202F58042026108E002698E
:1020A00022F4004202F50042026101E0FFE77047BE
:1020B00000BF00BFFBE7102972D2DFE801F0080E75
:1020C000141A20262C32383F464D545B6269C26890
:1020D00022F00102521CC26063E0C26822F00202D8
:1020E000921CC2605DE0C26822F00402121DC26050
:1020F00057E0C26822F008020832C26051E0C268AC
:1021000022F010021032C2604BE0C26822F02002BE
:102110002032C26045E0C26822F040024032C26014
:102120003FE0C26822F080028032C26039E0C268BB
:1021300022F4807202F58072C26032E0C26822F43A
:10214000007202F50072C2602BE0C26822F4806265
:1021500002F58062C26024E0C26822F4006202F5E7
:102160000062C2601DE0C26822F4805202F5805213
:10217000C26016E0C26822F4005202F50052C2604A
:102180000FE0C26822F4804202F58042C26008E09B
:10219000C26822F4004202F50042C26001E0FFE79B
:1021A000704700BF00BFFBE7102959D2DFE801F0FC
:1021B000080D12171C21262B30353A3F44494E5347
:1021C000036A62F3010303624BE0036A62F3830371
:1021D000036246E0036A62F30513036241E0036AA7
:1021E00062F3871303623CE0036A62F3092303622C
:1021F00037E0036A62F38B23036232E0036A62F31F
:102200000D3303622DE0036A62F38F33036228E02B
:10221000036A62F31143036223E0036A62F39343A8
:1022200003621EE0036A62F31553036219E0036A56
:1022300062F39753036214E0036A62F31963036263
:102240000FE0036A62F39B6303620AE0036A62F3CE
:102250001D73036205E0036A62F39F73036200E08B
:10226000704700BF00BFFBE7102959D2DFE801F03B
:10227000080D12171C21262B30353A3F44494E5386
:10228000036862F3000303604BE0036862F34103F9
:10229000036046E0036862F38203036041E0036881
:1022A00062F3C30303603CE0036862F3041303605A
:1022B00037E0036862F34513036032E0036862F3BA
:1022C000861303602DE0036862F3C713036028E000
:1022D000036862F30823036023E0036862F3492381
:1022E00003601EE0036862F38A23036019E0036859
:1022F00062F3CB23036014E0036862F30C330360E2
:102300000FE0036862F34D3303600AE0036862F391
:102310008E33036005E0036862F3CF33036000E0AF
:10232000704700BF00BFFBE7102959D2DFE801F07A
:10233000080D12171C21262B30353A3F44494E53C5
:10234000836862F3000383604BE0836862F34103B8
:10235000836046E0836862F38203836041E08368C0
:1023600062F3C30383603CE0836862F30413836019
:1023700037E0836862F34513836032E0836862F379
:10238000861383602DE0836862F3C713836028E0BF
:10239000836862F30823836023E0836862F3492340
:1023A00083601EE0836862F38A23836019E0836898
:1023B00062F3CB23836014E0836862F30C338360A1
:1023C0000FE0836862F34D3383600AE0836862F351
:1023D0008E33836005E0836862F3CF33836000E06F
:1023E000704700BF00BFFBE770B50446002500261C
:1023F000250904F00F06052D21D2DFE805F00308BA
:102400000E141A0031461148FFF755FE1AE0314606
:102410000E483030FFF74FFE14E031460B48603075
:10242000FFF749FE0EE0314608489030FFF743FEC3
:1024300008E031460548C030FFF73DFE02E04FF0AE
:10244000FF3070BD00BF0020FBE700000000082047
:102450002DE9F04104460D4600260027260904F028
:102460000F07052E26D2DFE806F0030910171E001D
:102470002A4639461348FFF757FF1FE02A463946D8
:1024800010483030FFF750FF18E02A4639460D4813
:102490006030FFF749FF11E02A463946094890307D
:1024A000FFF742FF0AE02A4639460648C030FFF7E8
:1024B0003BFF03E04FF0FF30BDE8F08100BF00209C
:1024C000FAE700000000082001460348814201D1DC
:1024D000012070470020FCE7007C004010B58021FF
:1024E000064800F023F80648006828B10448002296
:1024F000114603680148984710BD000000E0004005
:10250000B800002010B58021064800F00FF80648FA
:10251000406828B1044800221146436801489847A2
:1025200010BD000000F00040B800002001627047BC
:10253000C16921F00201C1617047C16921F0010147
:10254000C1617047016921F0400101617047C169B3
:1025500021F00201891CC1617047C16921F00101AC
:10256000491CC1617047016921F04001403101619E
:1025700070470146086A704770B504460D464FF42F
:102580006040201AC0F30736834901EBC601487941
:102590000121FFF7E9F8804901EBC60188790121A3
:1025A000FFF77CF92878C0F38000F8B100BF2069FC
:1025B00020F020002030206100BF2878C0F3C01038
:1025C00038B100BF606920F010001030606100BFBA
:1025D00000BF2888C0F30020002849D000BF6069F0
:1025E00020F008000830606100BF41E000BF2069B2
:1025F00020F02000206100BF2888C0F3802038B17F
:1026000000BFA06920F00100401CA06100BF00BF16
:102610002888C0F3402038B100BF606920F0010075
:10262000401C606100BF00BF2878C0F3401038B183
:1026300000BF606920F080008030606100BF00BF93
:102640002878C0F3801038B100BF606920F04000E6
:102650004030606100BF00BF2878C0F3C00038B1CF
:1026600000BF206920F00400001D206100BF00BFF2
:102670002878C0F34000C8B1474901EBC60191F981
:10268000040000280DDB00BF00BF00F01F02012185
:1026900091404209920002F1E022C2F8001100BF0D
:1026A00000BF00BF2046FFF75EFF09E03A4901EB9B
:1026B000C60191F9040001F015F82046FFF742FF2A
:1026C0002888C0F3C03038B100BFA06920F0800076
:1026D0008030A06100BF00BF2868C0F3004038B15F
:1026E00000BFA06920F040004030A06100BF00BFE3
:1026F0002868C0F3404038B100BFA06920F0020054
:10270000801CA06100BF00BF2888C0F3003018B152
:102710002046FFF71CFF02E02046FFF709FF28884C
:10272000C0F3403018B12046FFF717FF02E0204603
:10273000FFF703FF2888C0F3803058B100BF0020A6
:10274000A06A20F0100020F0400040F02000A062BD
:1027500000BF00BF68680106C90D2160C0F3C21147
:10276000616000BF287A297BA060E16000BF287803
:1027700000F0010038B100BF206920F080008030F7
:10278000206100BF06E000BF206920F080002061CA
:1027900000BF00BF002070BD684000080146086A05
:1027A000C0F3401070470146086AC0F3C00070478C
:1027B0002DE9F04780468A4615461F460026B14659
:1027C000002401E009F101093548006A00F0280001
:1027D000082802D033488145F4D33248814501D3DB
:1027E00044F010042E4800F025F90443002040EA8C
:1027F0004800C1B22A4800F069F90443002C47D1CF
:102800000AF0FF01264800F061F90443002C3FD193
:10281000234800F0DFF80443012000EB4800C1B278
:102820001F4800F053F90443012F05D10122294626
:102830001B4800F09FF804E000222946184800F0E9
:1028400099F82CBB012F06D101222946144800F02B
:1028500075F804431CE0002608E0A919002210487E
:1028600000F088F8044304B103E0761CB81EB042BF
:10287000F3D800BF3046761C41190122084800F009
:1028800079F80443A9190122054800F057F80443D8
:10289000034800F0EFF804432046BDE8F08700004D
:1028A00000F00040801A06002DE9F04707468846F0
:1028B00091469A4600250026002400E0761C1B481D
:1028C000006A00F02800082802D019488642F5D393
:1028D0001748864201D344F01004144800F0AAF8C7
:1028E0000443002040EA4700C1B2104800F0EEF86F
:1028F0000443A4B908F0FF010C4800F0E7F80443D2
:102900006CB9002508E019F80510084800F0DEF859
:10291000044304B102E06D1C5545F4D300BF0348E5
:1029200000F0A8F804432046BDE8F08700F000401E
:10293000801A06000146C86AC0B270472DE9F0410E
:1029400006460C4615460027304600F0B7F81DB184
:10295000304600F062F802E0304600F059F83046A8
:10296000FFF7E8FF207080213046FFF7DFFD384693
:10297000BDE8F0812DE9F04104460E4617460025DA
:10298000A84600BF206920F01000206100BF1FB1E1
:10299000204600F042F802E0204600F039F82046D8
:1029A000FFF7C8FF307000E06D1C2046FFF7E1FD27
:1029B00000F08000802802D005488542F4D3044806
:1029C000854201D348F001084046BDE8F08100008F
:1029D000801A060070B5064600240025304600F037
:1029E00022F800E0641C3046FFF7D8FE18B13046EC
:1029F000FFF7D9FE10B905488442F3D30348844257
:102A000001D145F01005284670BD0000801A06006F
:102A1000016921F0080101617047016921F0080195
:102A2000083101617047016B21F00101491C01630C
:102A30007047000070B5064600240025304600F0BF
:102A40003DF83046FFF7EFFF00E0641C3046FFF72B
:102A5000A5FE18B13046FFF7A6FE10B9044884421F
:102A6000F3D30348844201D145F01005284670BDD8
:102A7000801A060070B5044600250026204600F0A6
:102A80001DF800BF206B20F00200801C206300BFF7
:102A900000E06D1C2046FFF781FE18B92046FFF7C5
:102AA00082FE10B904488542F3D30348854201D120
:102AB00046F02006304670BD801A0600016921F0FC
:102AC0001001103101617047C16270472DE9F0417A
:102AD00006460F46002400253046FFF7EFFF394633
:102AE0003046FFF7F1FF00BFF06900F00100C0B908
:102AF00000E0641C3046FFF73CFD00F080008028B9
:102B000002D009488442F4D30748844201D345F0F7
:102B100001053046FFF72DFD00F0010008B145F03A
:102B200004052846BDE8F081801A060060200549AA
:102B30000860084600684FF47A714843024908600B
:102B400070470000B0000020B400002010B504461B
:102B5000124884420FD102210420FFF71DFA0221FE
:102B60000520FFF719FA03212A2000F013FE2A207E
:102B700000F0DCFD11E00A4884420ED101212A2038
:102B8000FFF70AFA01212B20FFF706FA02212B207A
:102B900000F000FE2B2000F0C9FD10BD00780040C1
:102BA000007C004010B504460548844207D101214D
:102BB0002520FFF7F1F901212620FFF7EDF910BDDF
:102BC00000F0004010B504460B48844207D10121B3
:102BD0001D2000F0F3FD1D2000F0B9FD0AE00648BD
:102BE0001030844206D101211E2000F0E7FD1E2096
:102BF00000F0ADFD10BD00000011014010B504460D
:102C0000124884420FD101211520FFF7C5F9012197
:102C10001620FFF7C1F90221012000F0E3FD012099
:102C200000F0A6FD11E00A4884420ED103210B20DA
:102C3000FFF7B2F903210C20FFF7AEF902210320C0
:102C400000F0D0FD032000F093FD10BD0080014096
:102C500000A001400A2938D2DFE801F0050A0F146C
:102C6000191E23282D32036862F3020303602DE04E
:102C7000036862F3C503036028E0036862F3881306
:102C8000036023E0036862F34B2303601EE00368E4
:102C900062F30E33036019E0036862F3D13303601B
:102CA00014E0036862F3944303600FE0036862F387
:102CB000575303600AE0036862F31A63036005E098
:102CC000036862F3DD63036000E0704700BF00BF8C
:102CD000FBE700000146002069B10E4A526842F04D
:102CE00000620C4B5A6000BF0A4A526802F08040F2
:102CF0000028F9D00CE0074A526822F00062054B28
:102D00005A6000BF034A526802F080400028F9D19F
:102D100070470000008000400146002069B10E4A63
:102D2000526842F000520C4B5A6000BF0A4A526887
:102D300002F000400028F9D00CE0074A526822F067
:102D40000052054B5A6000BF034A526802F000402F
:102D50000028F9D170470000008000400149C8698F
:102D6000704700000080004010B5FFF7F7FF0446F1
:102D70000B48C4612820002807DB00F01F02012156
:102D80009140084A430942F8231000BF06480068F2
:102D900028B10348C1682046034A1268904710BD15
:102DA0000080004080E200E0E800002010B5002133
:102DB00000224FF4FA7000BF154B164C2360164BDF
:102DC0002360401E23465B6803F000430BB10028DC
:102DD000F2DC62214FF4FA7041F498320D4B5A61E3
:102DE00000BF401E0B4B5B6903F400330BB100289E
:102DF000F7DC4FF40033074C236423465B6943F44C
:102E00008073636123465B6843F00043636010BDD9
:102E10001178AC00002000406745230101460020E6
:102E20004A1E4FF0E0235A6100229A6105221A617E
:102E300000BF4FF0E022106900F001021AB100F467
:102E40008032002AF5D04FF0E022126922F0010210
:102E50004FF0E0231A6100229A61704770B5044672
:102E60000D46002600BF03E02846FFF7D7FF761C7B
:102E7000A642F9D370BD10B50120FFF74DFF012028
:102E8000FFF728FF0120FEF7B9FC0020FEF7D8FC71
:102E90006020FEF7BDFC0220FEF7C6FC0020FEF716
:102EA000EBFC0120FEF7F1FC0420FEF77FFC012182
:102EB0000846FEF7D1FC10BD00B5FFF777FF00BD57
:102EC00010B50448006818B102480168002088471E
:102ED00010BD0000CC01002070B50446204600F073
:102EE00073F8054600F06AF870BD000010B504489C
:102EF000406818B1024841680120884710BD0000B1
:102F0000CC01002070B50446204600F05DF805466F
:102F100000F054F804480078012804D100F036F994
:102F200000200149087070BD2000002010B5044841
:102F3000806818B1024881680220884710BD0000EF
:102F4000CC01002010B50448C06818B10248C1681F
:102F50000320884710BD0000CC01002010B50448B4
:102F6000006918B1024801690420884710BD0000BB
:102F7000CC01002010B50448406918B102484169ED
:102F80000520884710BD0000CC01002010B5044882
:102F9000806918B1024881690620884710BD000089
:102FA000CC01002010B50448C06918B10248C169BD
:102FB0000720884710BD0000CC010020C16841F007
:102FC0000101C1607047000001460020082902DAB3
:102FD000014A52F821007047904000082DE9F04165
:102FE00004460D461D27002608E0204850F826001C
:102FF000A04201D11E488757701CC6B2082EF4DBD0
:103000001C48006800F0020008B100F035F868685C
:1030100020606878B8B1384600280DDB00BF00BFDB
:1030200000F01F02012191404209920002F1E022CA
:10303000C2F8001100BF00BF00BFA068697840EA75
:103040004100A06002E0384600F05EFBA87820B1A5
:10305000A068A97840EA8100A060287818B1A0682B
:1030600029780843A0600020BDE8F0819040000866
:10307000B04000080010014010B501211320FEF7F8
:1030800073FB01211320FEF709FC002001490860B1
:1030900010BD000000100140034A821A1209034BC0
:1030A00043F822107047000000110140CC010020BD
:1030B00010B5012000F0A2F910BD000070B5054662
:1030C0000C4616461B48C06900F0010068B304F0C6
:1030D000010050B301201849087000BF154800686E
:1030E000C1B2164802680068401C144B18601448AE
:1030F0008154012038B10F49C96921F00101491CEF
:103100000C4AD16105E00B49C96921F00101094A66
:10311000D16100BF094800681A2806D91C21084857
:10312000FDF735F80020054908600248C069002015
:1031300070BD000000800140200000201C00002025
:103140005001002010B5022000F058F910BD10B554
:10315000032000F053F910BD03460348C06902483C
:10316000C06900207047000000A0014010B5042095
:1031700000F044F910BD10B5052000F03FF910BD76
:1031800010B5062000F03AF910BD000010B5404916
:103190004048FDF707F858B93F480068801C3E4991
:1031A00008601C213B48FCF7F2FF00203B49086007
:1031B0003B493848FCF7F6FF58B937480068801E8D
:1031C000354908601C213348FCF7E1FF00203349F2
:1031D000086034492F48FCF7E5FF58B92E480068CD
:1031E00014302D4908601C212A48FCF7D0FF00202C
:1031F0002A4908602C492748FCF7D4FF58B92648CB
:1032000000681438244908601C212248FCF7BFFFDD
:1032100000202249086025491E48FCF7C3FF50B929
:1032200000201D4908601C211A48FCF7B0FF00204F
:103230001A49086006E01C211648FCF7A8FF002088
:1032400016490860002010E013490978184A1170E7
:1032500011490988090A51700F490968090C9170D0
:103260000D490968090ED170401C0428ECDB0024CC
:103270000AE004230E4A00210E480078FFF714FBF1
:10328000052000F053FD241D042CF2DB10BD0000CE
:103290002100002050010020000000201C00002020
:1032A0003D00002059000020750000209100002002
:1032B0000C0000201400002070B504460D46002CC0
:1032C00077D0002DFCD04B49601A8C422CD009DC01
:1032D0004948204468B1B0F5805F13D0B0F5005F75
:1032E0003DD118E0B0F5805F27D0B0F5005F36D152
:1032F0002CE001210020FEF737FA01210020FEF723
:10330000CDFA2DE001210846FEF72EFA01210846EC
:10331000FEF7C4FA24E001210220FEF725FA01217C
:103320000220FEF7BBFA1BE001210320FEF71CFA86
:1033300001210320FEF7B2FA12E001210420FEF77A
:1033400013FA01210420FEF7A9FA09E00121052062
:10335000FEF70AFA01210520FEF7A0FA00E000BFFF
:1033600000BF2979204600F0D5F8A979204600F061
:1033700029F96A7A2046296800F066F868790228F7
:1033800005D1E16821F00401091DE16003E0E16875
:1033900021F00401E16000BF287A08B10120E87142
:1033A000E879012806D1616921F00101491C6161B8
:1033B00004E01CE0616921F00101616100BF287A2D
:1033C000216C60F3000121644208216C62F3410129
:1033D000216400BF0120216960F34101216100BF28
:1033E00000BF216960F30001216100BF00BF002020
:1033F00070BD000000B001400080FEBF2DE9F0412B
:103400000446601E062819DA0D4951F820502E6A2C
:103410006F6A2E626F62E86900F0010008B926F059
:103420000106601E074951F8200030B1601E51F8B6
:1034300020303A4631462046984700BFBDE8F0812B
:10344000B8400008EC0100202DE9FE4F04468846F4
:1034500015464FF0000910200290012D04D0022DD6
:1034600005D10420029005E00820029002E010201F
:10347000029000BF00BF00BFA06A65F30100A06218
:1034800000BF4046FCF7D3FF07460298FCF7CFFF8A
:10349000824651461E48FCF71DFF06463946FCF79A
:1034A00019FF81464E463046FCF7E7FF074638468F
:1034B000FCF7BDFF31460090FCF7D7FE83464FF086
:1034C0008441FCF7D5FE0190FCF7C3FF8246F8B2B9
:1034D0006060C7F30720A060C4F844A000BF1020BC
:1034E00000F0100149B1616B21F0100110316163EE
:1034F000616B60F30301616307E0616B21F0100110
:103500006163616B21F00F01616300BFBDE8FE8F55
:10351000001B374C4A1F052A35D2DFE802F0030CA6
:1035200016202A00C26822F00302C260026922F05B
:103530002002026128E0C26822F00302521CC2602D
:10354000026922F0200202611EE0C26822F003023A
:10355000921CC260026922F02002026114E0C2687B
:1035600022F00302D21CC260026922F02002026132
:103570000AE0C26822F00302C260026922F020025F
:103580002032026100E000BF00BF704710B5024664
:103590000B460120002100BF0BE0084C54F82140ED
:1035A000944204D1064C44F82130002003E04C1C26
:1035B000E1B20629F1DB00BF10BD0000B8400008F1
:1035C000EC01002011B3012902D002291DD10DE028
:1035D000C26822F008020832C260C26822F02002EB
:1035E000C260C26822F01002C2601CE0C26822F011
:1035F00008020832C260C26822F02002C260C268BB
:1036000022F010021032C2600DE000BFC26822F04A
:103610000802C260C26822F02002C260C26822F0C2
:103620001002C26000BF00BF704729B1C26922F01A
:103630000102521CC26103E0C26922F00102C261B0
:103640007047000010B501460022002000BFA423EF
:103650005B58C3F3C02343B1A4235B5823F4006336
:1036600003F50063A424635004E01346521C044C89
:10367000A342ECD300BF024B9A4200D3012010BDFD
:10368000A086010010B501460022002000BFA4233F
:103690005B58C3F3802343B1A4235B5823F48063B6
:1036A00003F58063A424635004E01346521C044CC9
:1036B000A342ECD300BF024B9A4200D3012010BDBD
:1036C000A086010070B5144602680126A640761E49
:1036D00006FA01F5AA4303FA01F62E4032430260CE
:1036E00070BD000000280BDB00F01F02012191409B
:1036F000044A430942F82310BFF34F8FBFF36F8F83
:103700007047000080E100E000280BDB00F01F02A2
:1037100001219140044A430942F82310BFF34F8F1F
:10372000BFF36F8F7047000080E100E000280DDBE1
:1037300000BF00BF00F01F0201219140420992002A
:1037400002F1E022C2F8001100BF00BF704700285C
:103750000DDB00BF00BF00F01F02012191404209B4
:10376000920002F1E022C2F8001100BF00BF7047D2
:1037700000280DDB00BF00BF00F01F0201219140B7
:103780004209920002F1E022C2F8001100BF00BF1E
:103790007047000010B5002804DB0A07130E054A25
:1037A000135406E00A07140E034A00F00F031B1F10
:1037B000D45410BD00E400E018ED00E010B500287E
:1037C00004DB0A07130E054A135406E00A07140E19
:1037D000034A00F00F031B1FD45410BD00E400E0A7
:1037E00018ED00E010B5002804DB0A07130E054AA7
:1037F000135406E00A07140E034A00F00F031B1FC0
:10380000D45410BD00E400E018ED00E02DE9F041D3
:103810004F1E00EBC7010446D1E9000115461E46C4
:1038200037F006020DD02A463346FCF7AFFF7F1E65
:1038300004EBC703D3E90023FCF701FF37F00602CE
:10384000F1D1022F25D0042F13D0062F18BFBDE8C9
:10385000F0812A463346FCF799FFD4E90A23FCF7A6
:10386000EEFE2A463346FCF791FFD4E90823FCF725
:10387000E6FE2A463346FCF789FFD4E90623FCF727
:10388000DEFE2A463346FCF781FFD4E90423FCF729
:10389000D6FE2A463346FCF779FFD4E90223FCF72B
:1038A000CEFE2A463346FCF771FFD4E90023BDE87B
:1038B000F041FCF7C4BE0000002213461046014947
:1038C000FCF746BD0000F03F0122FCF7D1BF00220B
:1038D000134610461146FCF73BBD02E008C8121F14
:1038E00008C1002AFAD170477047002001E001C1E9
:1038F000121F002AFBD17047014908607047000081
:10390000EC0000202DE9F04DC84A002490B091420F
:1039100005DA21F00043934201D805D120B110B05F
:10392000BDE8F04DFFF7D0BFB1F5801F1BDA53EAB9
:10393000000209D0002911DA0120FFF7DDFF10B0E5
:10394000BDE8F04DFFF7C3BF0220FFF7D5FFFFF73B
:10395000B3FF10B081F00041BDE8F08D6FF0350489
:103960003622FCF785FF04EB2152C1F31308B0495E
:10397000A2F2FF33414401F4801282F07F6103EB35
:10398000225281F04051009241EA08010022A94BE5
:10399000FCF7F6FE044608F10200A74EC0F3130040
:1039A0000D467E44032867D2D6E900232046FCF763
:1039B00087FF1ED10098002802BFD6E9000110B091
:1039C000BDE8F08DFCF76BFF07460C469B4A9C4B0D
:1039D000FCF7DCFE06460D469A4A9B4B38462146CC
:1039E000FCF7D4FE10B032462B46BDE8F04DFCF794
:1039F00026BE4FF05532954B20462946FCF7C6FEB1
:103A00000022934BFCF7BFFE06460F4622462B468C
:103A100010461946FCF7BAFE32463B46FCF7B6FEA6
:103A2000064600980F46F0B1FCF739FF80468A46FB
:103A3000824A834BFCF7AAFE32463B46FCF7A3FEC4
:103A400022462B46FCF79CFE05460C467D4A7E4BE3
:103A500040465146FCF79AFE10B02A462346BDE880
:103A6000F04DFCF78DBE0B4610B03246204629467D
:103A7000BDE8F04DFCF784BE00224FF080432046A5
:103A8000FCF7DDFD02460B4620462946FCF760FCAC
:103A900006460F460098FCF702FFCDE904013246C6
:103AA0003B4610463946FCF771FE0C9069480C9A6B
:103AB0004044019009910B461046FCF767FE824690
:103AC000024665488B46C8F151080B4608F5D728D1
:103AD00003217844FFF79AFE52465B46FCF756FEF8
:103AE0000A905E480D9152465B4604217844FFF7E8
:103AF0008DFE099B0C9AFCF749FE844601980D9BAC
:103B000040EA080860460A9AFCF799FD8346089146
:103B1000B8F1000F4EDD4FF0FF3220462946FCF78A
:103B2000A7FE22462B46FCF731FE804600988A46C7
:103B300060B3DDE90401414A414BFCF727FE0991DE
:103B400000905A4640465146089BFCF778FD3246A5
:103B50003B46FCF71BFE099B009AFCF770FD4246B2
:103B60005346FCF710FE22462B46FCF709FE04469E
:103B70000D46DDE90401334A334BFCF707FE10B074
:103B800022462B46BDE8F04DFCF7FABD5A464046AA
:103B9000089BFCF754FD32463B46FCF7F7FD4246D6
:103BA0005346FCF7F0FD10B022462B46BDE8F04D21
:103BB000FCF7E9BD009840B3DDE904011F4A204B42
:103BC000FCF7E4FD80468A465A4620462946089B73
:103BD000FCF7D6FD32463B46FCF7D8FD424653463D
:103BE000FCF7CEFD22462B46FCF7CAFD04460D46E7
:103BF000DDE90401134A144BFCF7C8FD10B022465E
:103C00002B46BDE8F04DFCF7BBBD0B465A4620469F
:103C10002946FCF7B5FD32463B46FCF7B7FD10B030
:103C200022462B46BDE8F04DFCF7ADBD0000F07F0D
:103C3000645F09000000F03FAA070000763C793578
:103C4000EF39EA3D0000E0FE422EE63F5555D53FF4
:103C50000000E03F86EBF9FF42060000400600004E
:103C6000FFF709F9FEF762FFFCF7FAFEFCF764FEC6
:103C7000FCF7EAFFFCF716FFFCF7A8FEFCF7B6FF1F
:103C8000FCF774FFFCF792FF0423254A0021254826
:103C90000078FEF78DFD00201DE02149C978224AF9
:103CA000126801EB0221204A11601D4989781268CF
:103CB00001EB02211C4A116019494978126801EB95
:103CC0000221194A116016490978126801EB022194
:103CD000154A1160401C0428DFDB1FE001211F2072
:103CE000FEF7B6FB4FF47A7000F020F800211F2099
:103CF000FEF7AEFB00BF1E20FEF764F820B100BF48
:103D00001E20FEF799F804E000BF1E20FEF76CFBB2
:103D100000BF00BF4FF47A7000F008F8DEE7000043
:103D200010000020140000200000002070B50446A0
:103D30000648006804FB00F5280E4FF08071FFF77D
:103D40008DF825F07F40FFF769F870BDB4000020C2
:103D50004001082000000000400108200100000090
:103D6000400108200200000040010820030000007C
:103D70004001082004000000400108200500000068
:103D80004001082006000000400108200700000054
:103D90004001082008000000400108200900000040
:103DA0004401082000000000440108200100000038
:103DB0004401082002000000440108200300000024
:103DC0004401082004000000440108200500000010
:103DD00044010820060000004401082007000000FC
:103DE00044010820080000004401082009000000E8
:103DF00048010820000000004801082001000000E0
:103E000048010820020000004801082003000000CB
:103E100048010820040000004801082005000000B7
:103E200048010820060000004801082007000000A3
:103E3000480108200800000048010820090000008F
:103E40004C010820000000004C0108200100000087
:103E50004C010820020000004C0108200300000073
:103E60004C010820040000004C010820050000005F
:103E70004C010820060000004C010820070000004B
:103E80004C010820080000004C0108200900000037
:103E9000500108200000000050010820010000002F
:103EA000500108200200000050010820030000001B
:103EB0005001082004000000500108200500000007
:103EC00050010820060000005001082007000000F3
:103ED00050010820080000005001082009000000DF
:103EE00054010820000000005401082001000000D7
:103EF00054010820020000005401082003000000C3
:103F000054010820040000005401082005000000AE
:103F1000540108200600000054010820070000009A
:103F20005401082008000000540108200900000086
:103F3000580108200000000058010820010000007E
:103F4000580108200200000058010820030000006A
:103F50005801082004000000580108200500000056
:103F60005801082006000000580108200700000042
:103F7000580108200800000058010820090000002E
:103F800001100503020D04030310050307100503C8
:103F90000F10050313100503271005036310050315
:103FA000C7100503C7220B07000100000000000036
:103FB000FFFFFF1F010000000200000000000000E2
:103FC00002000000130000000000000003000000D9
:103FD0002401000000000000040000005000000068
:103FE0000FFFFF1F05000000600000000FFFFF1F14
:103FF0000600000007000000F0FFFF1F07000000A0
:1040000008000000F0FFFF1F08000000090000008A
:10401000F0FFFF5F090000000A000000F0FFFF7FD3
:104020000A00000000070000FFF0FF1F0B00000067
:1040300000C00000FF0FFF7F0C00000000000D001B
:10404000FFFFF07F0D0000000000E000FFFF0F7F8A
:104050000E0000000000000FFFFFFF700F000000C7
:1040600000000010FFFFFF6F00E000400F08080095
:1040700000F0004010090900C02201400023014067
:104080001B1C00004022014080220140191A000040
:104090000011014010110140201101403011014078
:1040A0004011014050110140601101407011014068
:1040B0001D1E2F303132333400800140009001400A
:1040C00000A0014000B0014000C0014000D001400C
:1040D00000210140402101401415000080210140D1
:1040E000C02101401617000080200140C02001407F
:1040F0001213000000220140402201401819000064
:1041000080220140C02201401A1B00000023014010
:10411000402001401C11000004FA97999999D93F59
:10412000AF788E1DC571CC3F9FC678D0099AC33F2A
:10413000935555555555E53F599322942449D23FFF
:10414000DE03CB966446C73F44523EDF12F1C23FC6
:10415000000000000000000078410008000000207E
:10416000F0000000DA38000868420008F000002083
:1041700018090000EA3800080000000000000000F4
:1041800000000000000000000000000050000000DF
:104190000000000000000000004C433A343043446B
:1041A000323833350D0A0000000000000000000026
:1041B00000000000004C433A343043443234333181
:1041C0000D0A0000000000000000000000000000D8
:1041D000004C433A34304344323833350D0A4C43B3
:1041E0003A34304344323833350D0A00004C433AF8
:1041F00034304344323433310D0A4C433A34304383
:1042000044323433310D0A00004C433A34304344D5
:10421000324333390D0A00000000000000000000A6
:10422000000000000000000000000000000000008E
:10423000000000000000000000000000000000007E
:10424000100000001000000010000000100000002E
:10425000100000001000000010000000100000001E
:08426000000000000000000056
:040000050800011DD1
:00000001FF
