:020000040800F2
:10000000700800206901000823290008B3240008B3
:1000100021290008E7020008D53000080000000090
:100020000000000000000000000000004729000858
:100030006908000800000000452900084929000857
:100040008301000883010008830100088301000880
:100050008301000883010008830100088301000870
:100060008301000883010008830100088301000860
:100070008301000883010008830100088301000850
:100080008301000883010008830100088301000840
:10009000E9020008830100088301000883010008C9
:1000A0008301000883010008830100088301000820
:1000B000212A0008E12A0008692C000883010008B1
:1000C0008301000883010008830100088301000800
:1000D00083010008BD300008C93000088301000812
:1000E000830100088301000883010008000000006C
:1000F0000000000000000000000000000000000000
:100100000000000000000000192D00088301000815
:100110008301000883010008392D000883010008CD
:10012000830100088301000883010008830100089F
:1001300083010008000000000000000083010008A7
:10014000F50200088301000883010008830100080C
:10015000DFF810D000F08AF800480047F9300008B6
:10016000AFF300807008002006488047064800472B
:10017000FEE7FEE7FEE7FEE7FEE7FEE7FEE7FEE757
:10018000FEE7FEE7CD290008510100082DE9F05FE8
:100190000546002092469B468846064681464024F6
:1001A0001BE0284641464746224600F020F85346C9
:1001B0005A46C01A914110D311461846224600F003
:1001C00046F82D1A67EB01084F4622460120002110
:1001D00000F03DF817EB00094E41201EA4F1010488
:1001E000DFDC484631462A464346BDE8F09F202AD8
:1001F00004DB203A21FA02F00021704721FA02F3D1
:10020000D040C2F120029140084319467047D2B253
:1002100001E000F8012B491EFBD270470022F6E7EF
:1002200010B513460A4604461946FFF7F0FF20466C
:1002300010BD10B5002200E0521C835C8C5CA34210
:1002400001D1002BF8D1D8B2E1B2401A10BD202A5A
:1002500004DB203A00FA02F1002070479140C2F11D
:10026000200320FA03F3194390407047064C074DD2
:1002700006E0E06840F0010394E807009847103476
:10028000AC42F6D3FFF768FF90310008B0310008A8
:1002900070B58C1810F8015B15F0070301D110F848
:1002A000013B2A1106D110F8012B03E010F8016B75
:1002B00001F8016B5B1EF9D12B0705D40023521EF8
:1002C0000DD401F8013BFAE710F8013BCB1A921C60
:1002D00003E013F8015B01F8015B521EF9D5A1425E
:1002E000D8D3002070BDFEE7014800F037BB000006
:1002F000D0010020014800F031BB000014020020B2
:100300002DE9F0412049002501F1400201F184006E
:1003100001F11C031163436353630163CD60036BFD
:1003200004219960036B082119610068416941F05B
:10033000020141611068416941F002014161A2F18D
:10034000680401266561C4E9065625606560A560FC
:10035000E5600E27256121461046C4E9086700F0D4
:1003600084FAC4E9065625606560A5601B20E56037
:10037000C4E90860C4E904572146BDE8F04101F131
:10038000680000F072BA00009001002010B500294A
:1003900058D0826B4FF4D873046803EB0113E45810
:1003A00014F0040494600468E4584DD0E4085460E8
:1003B0000468E35803F00203D3604FF4DA7304686F
:1003C00003EB0113E45804F00F0414611162046894
:1003D000E358C3F30723D3614FF4DC73046803EBE2
:1003E0000113E45814750468E458240A5475046829
:1003F000E458240C94750468E3581B0ED3754FF42D
:10040000DE73046803EB0113E45814760468E458BF
:10041000240A54760468E458240C94760468E3585B
:100420001B0ED3760368202289B11A6102685369D2
:1004300023F05003536190F83C20222A0DD0322A39
:100440000BD00FE0426BA5E7640D1460B0E7DA60F3
:100450000268536923F00A03ECE70268536923F446
:100460000F43536112220123002990F83C1006D05B
:10047000522914D0622915D0722906D114E04229DC
:100480000DD0622907D0722907D080F83C3000F0E7
:1004900095FC002010BD322107E0522105E080F8D4
:1004A0003C20F4E7222100E0422180F83C10EEE7F6
:1004B0002DE9F05FE349E448FFF7BBFEDFF88483F2
:1004C000E24DA8F12808E24EE24C40F2025B40F215
:1004D000E737A8F1090AC0B33BE0296BD9460020F1
:1004E0004246C1F804B0115C00F1140C2B6B401CA7
:1004F000C0B2904603F80C100828F4D30A21D34860
:1005000000F020FD2868416941F002014161316B32
:1005100000204246C1F80490115C00F1140C336BCA
:10052000401CC0B203F80C100828F5D30A21C848B3
:1005300000F008FD3068416941F002014161206826
:10054000C7626420E76000F07DFE9AF8020002288E
:10055000C3D3BC49BC481431FFF76BFEDFF8E4821B
:1005600040F20159A8F12008B8B33AE0296B002005
:100570004246C1F80490115C00F1140C2B6B401C36
:10058000C0B2904603F80C100828F4D30A21AF48F3
:1005900000F0D8FC2868416941F002014161316BEB
:1005A00000204246C1F80490115C00F1140C336B3A
:1005B000401CC0B203F80C100828F5D30A21A44847
:1005C00000F0C0FC3068416941F0020141612068DF
:1005D000C7626420E76000F035FE9AF80300032844
:1005E000C4D3984998482631FFF723FEDFF8548298
:1005F000A8F11808B8B33AE0296B00204246C1F8C8
:100600000490115C00F1140C2B6B401CC0B290469E
:1006100003F80C100828F4D30A218C4800F092FC4F
:100620002868416941F002014161316B0020424676
:10063000C1F80490115C00F1140C336B401CC0B283
:1006400003F80C100828F5D30A21814800F07AFC41
:100650003068416941F0020141612068C76264204D
:10066000E76000F0EFFD9AF804000428C4D3754950
:1006700075483731FFF7DDFDDFF8C881A8F11008B4
:10068000C0B33BE0296BD94600204246C1F804B014
:10069000115C00F1140C2B6B401CC0B2904603F8A7
:1006A0000C100828F4D30A21684800F04BFC286895
:1006B000416941F002014161316B00204246C1F8BD
:1006C0000490115C00F1140C336B401CC0B203F8B1
:1006D0000C100828F5D30A215D4800F033FC30687F
:1006E000416941F0020141612068C7626420E7600E
:1006F00000F0A8FD9AF805000628C3D351495248D6
:100700004A31FFF796FDDFF83C81A8F10808C0B335
:100710003BE0296BD94600204246C1F804B0115C89
:1007200000F1140C2B6B401CC0B2904603F80C1067
:100730000828F4D30A21454800F004FC28684169E0
:1007400041F002014161316B00204246C1F8049042
:10075000115C00F1140C336B401CC0B203F80C1098
:100760000828F5D30A213A4800F0ECFB30684169CB
:1007700041F0020141612068C7626420E76000F037
:1007800061FD9AF806000528C3D32E492E485E3134
:100790001E38FFF74EFD304D30B12A492A487A31D4
:1007A0001E38FFF746FD90B92C4801F0A7FB2C48F6
:1007B00001F0A4FB2B4801F0A1FB206841F2873136
:1007C000C162E16001222021284600F035FE1D496A
:1007D0001D486C311E38FFF72CFD30B119491A48FD
:1007E00088311E38FFF725FD90B91C4801F092FBB7
:1007F0001B4801F08FFB1B4801F08CFB216842F283
:100800000F70C862E06000222021284600F014FE2C
:100810000D481E211E38FFF701FD1E210A48FFF773
:10082000FDFC00218AF800108AF801108AF80210F5
:100830008AF803108AF804108AF805108AF806105E
:10084000BDE8F09F310000204A010020D0010020C7
:10085000140200206C03002000100140AC020020B4
:10086000EC0200202C0300207047F0B50B7D012422
:1008700004FA03F20368D3F800524E6A25F47C555B
:1008800004EB06242543C3F800520368D3F81C4246
:100890009443C3F81C424FF41074CB69251DBBB9B7
:1008A0000368D3F80C629643C3F80C628E894B68D8
:1008B0004F6966F31F43066804EBC707F3510E89BF
:1008C0000B684F6966F31F43066805EBC707F351D2
:1008D000CB69012B17D10368D3F80C621643C3F818
:1008E0000C620E884B684F6966F31F43066804EB81
:1008F000C70433510C89CB684E6964F31F43046805
:1009000005EBC60563518B69002B0368D3F80442DD
:100910000FD01443C3F804420B69002B0368D3F8CB
:10092000144208D01443C3F81442096A012904D0C0
:1009300009E09443EEE79443F5E70168D1F81C32EF
:100940001343C1F81C320068D0F8001221F00101F5
:10095000C0F800120020F0BD704700002DE9F04102
:10096000044600680026C1684269C1F30011C2F361
:10097000C002102311B10AB15E01C3602068016991
:100980004269C1F30011C2F3801219B112B146F4E9
:1009900080660361216848694FF00105C043C007C4
:1009A0004ED18A687648904323D000228B687548E0
:1009B000984320D000238F687348B8431DD000208F
:1009C0001A4302433CD088688A68C0F340008B68B1
:1009D000C2F34022C3F300031043184329D04A69ED
:1009E000204622F001024A6194F83C10122906D0F8
:1009F0000AE00122DAE70123DDE70120E0E70168F0
:100A00004A6922F40F424A6190F83C10422908D00A
:100A1000522908D0722908D080F83C5000F078FBA9
:100A200009E0222102E0322100E0622180F83C103E
:100A3000F4E746F4006620688168544A11438160F7
:100A40002068C168406911F0030FC0F3400004D072
:100A500018B100212046FFF799FC20680169406920
:100A600011F0030FC0F3001004D018B1012120468B
:100A7000FFF78CFC206C3043206420688169C1F34F
:100A8000000241694369C1F30021C3F3C0332AB1B5
:100A900021B11BB1216C41F0010121648169C1F3D5
:100AA000400241694369C1F34021C3F3C0332AB115
:100AB00021B11BB1216C41F0020121648169C1F3B4
:100AC000800241694369C1F38021C3F3C0332AB175
:100AD00021B11BB1216C41F004012164816911F045
:100AE000700F08D0002142694369C2F3C022C3F3EA
:100AF000C03311B121E00121F5E7F2B1EBB1816919
:100B000001F0700140292FD006DC102909D02029DE
:100B10000BD030290DD123E0502929D0602908D1EC
:100B20002AE0216C41F0080102E0216C41F0100143
:100B30002164816921F070018161206C00280DD051
:100B400021680420486084F83C502068416948F6D8
:100B50005B72914341612046FFF7FEFEBDE8F081E4
:100B6000216C41F02001E3E7216C41F04001DFE717
:100B7000216C41F08001DBE7216C41F48071D7E703
:100B80000100000400010008000001100905010037
:100B90002DE9F0474FF000080400454604D094F8D2
:100BA0003C00002618B107E00120BDE8F08784F87A
:100BB0003D60204600F086F8022084F83C00206862
:100BC000016821F0020101602068016841F0010123
:100BD000016000F037FC07464FF0030904E000F025
:100BE00031FCC01B0A2853D820684068C007F6D0E3
:100BF00021684868C00758D0A069012801D145F094
:100C00008005E06901282FD025F04000226A012AE2
:100C10002DD020F02000626A012A2BD020F0100095
:100C2000A26A012A29D020F00800E26A012A27D00E
:100C300020F004000A6822F0FC0202430A60D4E9B2
:100C400002010843D4E90412114308436168491EB4
:100C500008432168C8612068016821F00101016032
:100C600000F0F0FB054618E045F04000CEE740F00C
:100C70002000D0E740F01000D2E740F00800D4E7B1
:100C800040F00400D6E700F0DDFB401B0A2804D941
:100C900004F83C9F0320667087E720684068C0071F
:100CA000F1D120684068C00702D0B8F1000F05D02C
:100CB0002664012084F83C00002076E7042084F8B4
:100CC0003C0071E7F0B5384B0068DFF8D8C0196810
:100CD0000027364C02250326354A491C85B060455D
:100CE0002CD11960012907D1D06940F00070D06182
:100CF000D06900F0007004904FF48070CDE90007D7
:100D000069462046029700F0AFFA4FF40070CDE933
:100D1000000569460396204600F0A6FA2549486872
:100D200020F4C04040F0E06040F480404860012280
:100D30000321142000F0D4FC14202EE0DFF878C04A
:100D400060452CD1D06940F08060D061D069012924
:100D500000F080600490196007D1D06940F0007005
:100D6000D061D06900F0007004904FF48050CDE95C
:100D7000000769462046029700F076FA4FF40050CB
:100D8000CDE9000569460396204600F06DFA012280
:100D90000321402000F0A4FC402000F095FC05B0A9
:100DA000F0BD000000640040CC000020000C0140B9
:100DB0000010024000000140006800402DE9F04FA3
:100DC0005C4C022603275C4B5C4A4FF004094FF051
:100DD000050A4FF0060B40F2045540F2035841F269
:100DE0008731A04256D1446BD4F804C0AC450BD136
:100DF00094F815C0BCF1050F06D1A47D012C03D1D8
:100E00009E701468E162D160446BD4F804C0AC45B4
:100E10000BD194F815C0BCF1050F06D1A47D022CAE
:100E200003D1DF701468E162D160446BD4F804C070
:100E3000AC450BD194F815C0BCF1080F06D1A47DC8
:100E400024B983F804901468E162D160446BD4F84B
:100E500004C0C4450CD194F815C0BCF1020F07D1F1
:100E6000A47D032C04D183F806A01468E162D1604C
:100E7000446BD4F804C0C4450CD194F815C0BCF13F
:100E8000030F07D1A47D052C04D183F805B01468A5
:100E9000E162D1602A4CA0424AD1446BD4F804C02C
:100EA000AC450BD194F815C0BCF1050F06D1A47D5B
:100EB000012C03D19E701468E162D160446B6668B6
:100EC000AE4209D1667D052E06D1A47D022C03D148
:100ED000DF701468E162D160446B6668AE4209D18C
:100EE000657D082D06D1A47D24B983F8049014688B
:100EF000E162D160446B656845450AD1657D022D8C
:100F000007D1A47D032C04D183F806A01468E16204
:100F1000D160406B446844450AD1447D032C07D11D
:100F2000807D052804D183F805B01068C162D160C6
:100F3000BDE8F08FD0010020000000206C030020ED
:100F4000140200202DE9F05F0E460168044688680F
:100F5000400105D48868000102D48868C00072D5B9
:100F600094F83D0001280DD04FF0010884F83D8031
:100F700094F83C00222808D0322808D062280ED0ED
:100F8000122005E00220BDE8F09F422000E0522040
:100F900084F83C008868400103D5002507E07220F2
:100FA000F6E78868000101D5012500E002254FF42D
:100FB000C07000EB05100A5802F001020A50216BC4
:100FC00022688B68F3B317581F43CB68496843EA1C
:100FD000C1010F431750216B0A7C02F00F020A6116
:100FE0004FF4C271226801EB0511535823F00F032F
:100FF000535022685358276B3F693B435350216B32
:101000000A7DCB7D42EA03628B7D497D1B0443EA66
:1010100001210A434FF4C473216803EB0513CA503E
:10102000216B0A7ECB7E42EA03628B7E497E1B04E3
:1010300043EA01210A434FF4C673216803EB051309
:10104000CA5001E00FE057E021680A5842F001025F
:101050000A5000F0F7F907464FF00009DFF8A4A0A6
:10106000DFF8A4B022E01358CF6809883B4343EA75
:1010700041511150AFE7701C18D026B100F0E2F9D1
:10108000C01BB04212D9032084F83C004DB1012DA1
:1010900009D04FF400002168886084F83D90032057
:1010A00071E78020F7E74FF40040F4E78DB1206846
:1010B000012D816812D0154888430028DBD194F8AF
:1010C0003C0042280DD052280DD0722812D0404644
:1010D0000AE0206881682AEA0100EEE72BEA0100B5
:1010E000EBE7222000E0322084F83C0084F83D90B9
:1010F000002048E76220F7E7042084F83C00012044
:1011000041E7000001000004000100080000011098
:10111000704700002DE9F05F90F8211000240229AB
:1011200003D004218163012485E001680A6822F06C
:101130000E020A6001680A6822F001020A603F4E4E
:101140003E4FB215DFF8F4C0DFF8F090DFF8ECA006
:10115000DFF8E8B0DFF8E4E00168783F130115023A
:10116000ACF1640CA9F15009AAF13C0AABF1280BCF
:10117000AEF1140E4FF48018B14227D9B9420ED007
:10118000614512D049451DD0514518D0594518D058
:10119000714501D1424615E0294EB14201D10122EB
:1011A00010E0274E1436B14201D110220AE0244E3D
:1011B0002836B14206D0224A3C32914201D11A4629
:1011C00000E02A461E49091F0A602BE0B94213D0ED
:1011D000614517D0494522D051451DD059451DD0F4
:1011E000714501D142461AE0B14202D14FF08072FE
:1011F00015E0134EB14201D1012210E0104E143619
:10120000B14201D110220AE00D4E2836B14206D07B
:101210000B4A3C32914201D11A4600E02A46074966
:1012200080394A60012180F82110002180F82010C7
:10123000416B01B188472046BDE8F09F8000024025
:101240000804024070B5044600F0FCF80546601C36
:1012500002D004480078044400F0F4F8401BA04297
:10126000FAD370BD1C0100202DE9F84FDFF8A091E2
:10127000002309F1040A0AF1040B1C464FF00F0881
:101280000BF1040E01270A68A7403A40BA4272D116
:10129000DFF880C14D68A5EB0C0665452BD00DDC51
:1012A000032D34D005DC35B3012D19D0022D2FD1FB
:1012B0001BE0112D16D0122D2AD119E0B6F5881F8A
:1012C00019D006DCB6F5803F15D0B6F5801F1FD1CA
:1012D00011E0B6F5001F0ED0B6F5041F18D10AE0D4
:1012E000CB6815E0CB681B1D12E0CB6808330FE01C
:1012F000CB680C330CE08B682BB1012B4FF008034B
:1013000003D0476104E0042302E0076100E000230A
:10131000FF2A01D8064601E000F104064FEA8405E1
:1013200001D9A5F12005376808FA05FC27EA0C0762
:1013300003FA05F547EA050737604D68ED0060D50B
:10134000354DAE6946F00106AE61AD6924F0030685
:1013500005F001050095314D7719BE68A5072D0FE1
:1013600008FA05FC26EA0C06DFF8B4C0604503D194
:101370004FF0000C17E044E0DFF8A8C0604502D150
:101380004FF0010C0FE0DFF8A0C0604502D14FF034
:10139000020C08E0DFF894C0604502D14FF0030C66
:1013A00001E04FF0040C0CFA05FC4CEA060CC7F8FF
:1013B00008C04D68D9F80060ED034D4601D51643CD
:1013C00000E096432E604D68DAF80060AD035546A4
:1013D00001D5164300E096432E604D68DBF80060AF
:1013E000ED025D4601D5164300E096432E604D6840
:1013F000DEF80060AD02754601D5164300E0964365
:101400002E60641C102CFFF43DAFBDE8F88F000087
:1014100000040140000011100010024000000140D3
:1014200000080140000C0140001001400014014080
:10143000C2684A40C26070470AB10161704709043E
:10144000FBE7000001488068704700001C01002095
:1014500070B504001BD094F83D00002520B984F835
:101460003C50204600F094F8242084F83D00206889
:10147000016821F00101016000F010FA404A616842
:10148000914201D83F4900E03F49884201D2012002
:1014900070BD3E492368B0FBF1F159606368934227
:1014A00006D94FF4967359434FF47A73B1FBF3F1B5
:1014B0002368491C19626168914210D84900401E96
:1014C000B0FBF1F2521CC2F30B02042A01D2042039
:1014D00022E0B0FBF1F0401CC0F30B001CE0A2685E
:1014E000CAB301EBC10303EB0116431EB3FBF6F3D2
:1014F0005B1C43F480431B0536D06AB301EBC10289
:1015000002EB0111401EB0FBF1F0401CC0F30B00D8
:1015100040F4804040F400402168C861D4E90701EC
:10152000084321680860D4E90310084321688860F3
:10153000D4E9050108432168C8602068016841F0CA
:10154000010101602564202084F83D00256384F8B2
:101550003E50002070BD00E008E001EB4106431E54
:10156000B3FBF6F35B1CC6E70120D5E701EB4101B5
:10157000401EB0FBF1F0401CC0F30B00CAE70000B6
:10158000A086010080841E0000093D0040420F003B
:1015900000B500680C4985B0884213D14FF4406013
:1015A0000090122001900320039069460748FFF73E
:1015B0005BFE0748C16941F48001C161C06900F464
:1015C0008000049005B000BD00580040000C0140B0
:1015D000001002400248816802781144816070471F
:1015E0001C010020074810B5016841F0100101609E
:1015F000032000F095F8002000F006F800F024F831
:10160000002010BD0020024070B50D4D04464FF47F
:101610007A712878B1FBF0F00A490968B1FBF0F063
:1016200000F0A3FB48B9102C07D200222146501E1F
:1016300000F056F800206C6070BD012070BD000005
:101640001C010020280100201D4808B5816941F0D7
:1016500001018161806900F001000090052000F027
:101660005FF8002211466FF00B0000F039F80022FD
:1016700011466FF00A0000F033F8002211466FF0B7
:10168000090000F02DF800221146501F00F028F844
:1016900000221146101F00F023F800221146901E70
:1016A00000F01EF800221146501E00F019F80549FE
:1016B000486820F0E06040F00070486008BD00001D
:1016C000001002400000014000F01F020121914083
:1016D0004009800000F1E020C0F8001170470000D0
:1016E000F0B40E4B1B68C3F30223C3F10704042CB0
:1016F00000D904241D1D072D01D2002300E0DB1EAC
:10170000012606FA04F56D1E0D409D409E40761E92
:10171000164045EA0601F0BC01F004B90CED00E00A
:10172000064A00F0070110684FF6FF03184040EA30
:101730000120034908431060704700000CED00E0F1
:101740000000FA052DE9F047DFF8348104460E4623
:10175000D8F8000000F00700B0420CD2D8F8001012
:1017600021F007013143C8F80010D8F8000000F05C
:101770000700B04260D12078424F800705D57868D5
:10178000A16820F0F000084378602078C00742D0BC
:101790006068012816D03968022816D08907002908
:1017A0004ADA796821F0030101437960FFF74AFEC4
:1017B0000546606841F2883101280ED0022889462A
:1017C00017D024E039688903E9E78901E7E7FFF7E3
:1017D00039FE411B494501D916E089467868C0F3B6
:1017E00081000128F3D116E0FFF72CFE411B49458B
:1017F0000AD87868C0F381000228F5D10BE0FFF722
:1018000021FE411B494502D90320BDE8F0877868D5
:1018100010F00C0FF3D1D8F80010404601F007018A
:10182000B1420BD9016821F0070131430160006822
:1018300000F00700B04201D00120E6E72078400721
:1018400005D57868E16820F4E06008437860207886
:10185000000706D57868216920F4605040EAC1008D
:10186000786000F03BF87968074AC1F30311515CD6
:10187000C840064908600020FFF7C6FE0020C4E704
:1018800000200240001002407831000828010020AA
:1018900001480068704700002801002004480549FD
:1018A00000684968044AC1F30221515CC84070478E
:1018B0002801002000100240883100080448054932
:1018C00000684968044AC1F3C221515CC8407047AE
:1018D000280100200010024088310008F0B523A044
:1018E00089B00FC88DE80F0024A004AC0FC884E8AD
:1018F0000F00264B5968264801F00C02042A2FD00D
:10190000082A2DD1C1F38342C8031DF8024029D50E
:10191000D86A04A900F00F00085CD96AC90316D57B
:10192000D96AC1F30312D96A521CC1F30321891C7D
:10193000A2FB0023A1FB0416154D0027A1FB050CFB
:1019400006FB05C501FB0751FEF720FC03E010492B
:101950006143B1FBF0F09DF80D10A14200D14008A9
:1019600009B0F0BD0B486043FAE700000000040531
:101970000607080900000000000D00000102030432
:1019800005060708090A0B0C0D0E0F100010024087
:1019900000127A0000093D002DE9F84F0446007856
:1019A000E64DC00747D06868C0F38100012807D022
:1019B0006868C0F38100022809D16868C00306D5B1
:1019C0002868800337D5A06800287DD033E0A06860
:1019D000B0F5803F0BD010B1B0F5A02F11D0286822
:1019E00020F480302860286820F4802002E02868F5
:1019F00040F480302860A06888B1FFF723FD0646D8
:101A000009E0286840F480202860F0E7FFF71AFD1D
:101A1000801B642875D828688003F7D50BE0FFF792
:101A200011FD064604E0FFF70DFD801B6428F1D888
:101A300028688003F7D42078C14E80074FF0010A50
:101A40004FF0000739D5686810F00C0F07D06868B0
:101A5000C0F38100022809D16868C00306D4286851
:101A6000800714D5606901282ED110E06069B0B1FB
:101A7000C6F800A0FFF7E6FC804605E0FFF7E2FCB1
:101A8000A0EB08000228C5D828688007F6D528688A
:101A9000A16920F0F80040EAC10028600DE037603D
:101AA000FFF7D0FC804605E0FFF7CCFCA0EB080078
:101AB0000228AFD828688007F6D4207800072FD5F1
:101AC000A048E169F1B100E01CE1C0F800A0FFF717
:101AD000B9FC804605E0FFF7B5FCA0EB0800022842
:101AE00098D8686A8007F6D597484FF4FA5100688D
:101AF000B0FBF1F0009000BF0098411E0091FAD2B7
:101B00000EE0B1E00760FFF79DFC804605E0FFF7BF
:101B100099FCA0EB0800022889D8686A8007F6D4EF
:101B20002078400762D5E8694FF00009C00009D469
:101B3000E86940F08050E861E8694FF0010900F081
:101B40008050009081480168C90512D4016883461D
:101B500041F480710160FFF775FC804605E0FFF7F6
:101B600071FCA0EB080064287ED8DBF80000C005FB
:101B7000F5D5206901280AD008B1052813D0286AB4
:101B800020F001002862286A20F0040002E0286AA0
:101B900040F001002862206941F2883B90B1FFF7D4
:101BA00051FC80460AE0286A40F004002862EEE713
:101BB000FFF748FCA0EB0801594555D8286A800773
:101BC000F6D50CE0FFF73EFC804605E0FFF73AFC57
:101BD000A0EB0801594547D8286A8007F6D4B9F127
:101BE000000F03D0E86920F08050E861E06AE0B3BC
:101BF0006968C90307D56968C1F38101022902D167
:101C0000E96AC9037ED4022808D0E86A20F480304B
:101C1000E862B766FFF716FC80463BE02868C00024
:101C200005D5E86A616B00F0F00088426AD1B766BA
:101C3000FFF708FC804605E0FFF704FCA0EB080076
:101C4000642871D828680001F6D4E86A616B20F036
:101C5000F0000843E862E86A216B20F470600843F2
:101C6000E862C6F868A001E05EE016E0FFF7EAFB74
:101C7000804605E0FFF7E6FBA0EB0800642853D898
:101C800028680001F6D508E0FFF7DCFBA0EB0800B0
:101C9000642849D828680001F6D4206A98B3696896
:101CA000C1F38101022947D00228376603D0FFF72C
:101CB000C9FB04463BE0FFF7C5FB074604E0FFF71E
:101CC000C1FBC01B02282FD828688001F7D4606AA6
:101CD000B0F5803F09D1E86A61680843E862E86AC4
:101CE000E16820F00F000843E862D4E909010843E5
:101CF000696821F4741108436860C6F860A0FFF7B2
:101D0000A1FB01E018E015E0044604E0FFF79AFBB0
:101D1000001B022808D828688001F7D50AE0FFF7E1
:101D200091FB001B022802D90320BDE8F88F286828
:101D30008001F4D40020F8E70120F6E7001002400B
:101D4000000042428004424228010020007000400E
:101D50004FF0E0210428086903D020F00400086156
:101D6000704740F00400FAE7704710B5401EB0F12C
:101D7000807F01D3012010BD4FF0E02460610F216E
:101D8000601700F0CFFD0020A06107202061002037
:101D900010BD10B5FFF7E8FF10BD7047704730B5B4
:101DA00090F83C20012A20D0012380F83C30022208
:101DB00080F83D200268546824F070045460026882
:101DC00054680D682C4354600268946824F08004C1
:101DD00094600268946849680C43946080F83D30D0
:101DE000002180F83C10084630BD022030BD10B5FF
:101DF000040003D094F83D0010B107E0012010BDAD
:101E0000002084F83C00204600F00CF8022084F802
:101E10003D00211D206800F095FF012084F83D0061
:101E2000002010BD08B500682F49B0F1804F11D0D7
:101E30002E4A90421DD1C86940F00200C861C869AD
:101E4000002200F00200009002211D20FFF748FC54
:101E50001D2043E0C86940F00100C861C869002244
:101E600000F00100009002211C20FFF739FC1C202B
:101E700034E01F4A90420ED1C86940F00400C861A6
:101E8000C869002200F00400009002211E20FFF724
:101E900027FC1E2022E0174A90420ED1C86940F06C
:101EA0000800C861C869002200F008000090022103
:101EB0003220FFF715FC322010E00F4A904211D17A
:101EC000C86940F01000C861C869002200F0100025
:101ED000009002213620FFF703FC3620BDE80840C1
:101EE000FFF7F2BB08BD00000010024000040040F4
:101EF00000080040000C0040001000400168CA6863
:101F000042F00102CA600068016841F0010101600D
:101F1000002070470168CA6822F00102CA600068A8
:101F2000016A41F21112114207D1016A9210114265
:101F300003D1016821F0010101600020704770B5F4
:101F4000044690F83C00012817D0012584F83C5045
:101F5000022084F83D002068826822F0770222F493
:101F60007F4282600868502836D00DDC202858D087
:101F700005DC80B3102840D150E0022070BD30282D
:101F800052D0402839D13EE060282DD070280BD0A7
:101F9000B0F5805F03D0B0F5005F2ED110E020686F
:101FA000816821F0070109E0CB68D1E901212068AF
:101FB00000F004FF2068816841F0770181601CE037
:101FC000CB68D1E90121206800F0F8FE2068816823
:101FD00041F48041F2E71EE0CA684968206800F0D9
:101FE000FFFE5021206806E0CA684968206800F0BA
:101FF00008FF6021206800F0EBFE84F83D500020CF
:1020000084F83C0070BDCA684968206800F0E8FEAA
:1020100040212068EFE700212068ECE710212068CC
:10202000E9E720212068E6E730212068E3E77047F0
:1020300070B50446006801694FF00005C94389077F
:1020400015D4C168C943890711D4E91E0161012073
:102050002077206880698007204602D0FFF7E7FFDD
:1020600004E000F098F8204600F096F82577206804
:102070000169C943490717D4C168C943490713D443
:102080006FF004010161022020772068806910F45C
:10209000407F204602D0FFF7CAFF04E000F07BF843
:1020A000204600F079F8257720680169C9430907BF
:1020B00016D4C168C943090712D46FF00801016141
:1020C000042020772068C0698007204602D0FFF7EF
:1020D000AEFF04E000F05FF8204600F05DF82577E1
:1020E00020680169C943C90617D4C168C943C90634
:1020F00013D46FF010010161082020772068C069B7
:1021000010F4407F204602D0FFF791FF04E000F07A
:1021100042F8204600F040F8257720680169C9435D
:10212000C90708D1C168C943C90704D1891E016123
:10213000204600F032F820680169C943090609D435
:10214000C168C943090605D46FF0800101612046CA
:10215000FFF723FE20680169C943490609D4C16815
:10216000C943490605D46FF040010161204600F0E3
:1021700015F820680169C94389060BD4C168C943B1
:10218000890607D46FF0200101612046BDE8704048
:10219000FFF704BE70BD70477047704770477047C7
:1021A00070B5026804461068D168536910F00F0FCB
:1021B00050D003F0010501F4907635435DD0C2079D
:1021C00005D0CA0503D5E26B42F00102E263420783
:1021D00005D5DA0703D0E26B42F00202E263820720
:1021E00005D5DA0703D0E26B42F00402E26302078E
:1021F00005D5DA0703D0E26B42F00802E263E26B36
:10220000002A33D0800604D5880602D5204600F087
:1022100020FE20684069E16BC0F38010090700D4FC
:1022200028B3204600F007FE2068416949061AD508
:10223000416921F040014161606BA0B11B494163DC
:10224000606BFEF767FF002810D0606B416BBDE844
:1022500070400847830610D58B060ED52046BDE892
:10226000704000F0F6BD2046FFF799FF70BD204694
:10227000FFF795FF0020E06370BD030606D50B064F
:1022800004D52046BDE8704000F0E6BE4006F3D518
:102290004806F1D5D168204621F04001D1602021C7
:1022A00084F8391000F004F970BD0000272E0008F2
:1022B00070B5040004D094F83900002510B106E090
:1022C000012070BD84F83850204600F023F8242007
:1022D00084F839002068C16821F40051C1602046AB
:1022E00000F002FE2068016921F49041016120683C
:1022F000416921F02A0141612068C16841F400511F
:10230000C160E563202084F8390084F83A00002099
:1023100070BD000070B5274E01680024264A0220D7
:102320000323264D86B0B1421ED1916941F480410C
:1023300091619169039301F4804104910102CDE917
:10234000001069462846FEF78FFF2815CDE90004E6
:10235000694628460294FEF787FF01221146252090
:10236000FFF7BEF9252020E0154EB1421FD1D169FB
:1023700041F40031D161D169039301F4003104913A
:102380000421CDE9001069462846FEF76DFF0820BC
:10239000CDE90004694628460294FEF765FF012254
:1023A00011462620FFF79CF92620FFF78DF906B08D
:1023B00070BD0000003801400010024000080140DC
:1023C0000044004090F83A30202B22D1F9B1F2B10C
:1023D00090F83830012B1CD081628285C2850021A3
:1023E000C163222280F83A2080F838100168CA6858
:1023F00042F48072CA6001684A6942F001024A618F
:102400000068C16841F02001C160002070470120D0
:10241000704702207047000070B5064600681949F1
:1024200000240125884212D11748194B0178491C14
:10243000C9B2017015481944027801F8012C1549F8
:1024400001220D70047001461348FFF7BBFF1349CA
:102450003068884214D11249134B0878401CC0B22E
:102460000870104918440A7800F8012C0F4801221E
:1024700005700C70BDE8704007484030FFF7A2BF00
:1024800070BD00000038014000000020070000205F
:102490002C010020C7000020EC0300200044004075
:1024A00001000020080000204A010020C800002090
:1024B0007047FEE7104810B50E49016010214160D9
:1024C00000214FF480228160C0E90312D200C0E9EC
:1024D0000521C161016241628162C162FEF758FB60
:1024E000002805D0BDE81040482104A000F0F3BD4D
:1024F00010BD000000640040D00100202E2E2F539C
:1025000072632F63616E2E6300000000104810B5E7
:102510000E4901601021416000214FF4802281604A
:10252000C0E90312D200C0E90521C1610162416224
:102530008162C162FEF72CFB002805D0BDE8104087
:102540005E2104A000F0C7BD10BD0000006800407F
:10255000140200202E2E2F5372632F63616E2E63A0
:102560000000000030B51F4885B0816941F01001BE
:102570008161816901F010010491816941F02001BC
:102580008161816901F020010491816941F00401B8
:102590008161816901F004010491816941F00801C0
:1025A00081618069104D00F0080044F2200404901D
:1025B000002221462846FEF73FFF00220720CDE9F2
:1025C0000002694628460292FEF74EFE0120CDE940
:1025D00000400220039069462846FEF745FE05B0FC
:1025E00030BD000000100240001001400E4810B540
:1025F0000C4901600D49416000214FF48042816027
:10260000C0E9031241618161C1610162FEF720FFEF
:10261000002805D0BDE81040422105A000F05BBDB8
:1026200010BD00000058004058020020801A06002B
:102630002E2E2F5372632F6932632E630000000029
:1026400010B5184886B04FF08041016041F61F4137
:102650000024C0E9011440F2E731C0E903148021ED
:102660008161FFF7C4FB18B143210FA000F033FDD7
:102670004FF48050009069460A48FFF760FC18B19B
:10268000492109A000F027FD049404A905480594F8
:10269000FFF785FB002803D0502103A000F01BFDAD
:1026A00006B010BDAC0200202E2E2F5372632F7483
:1026B000696D2E630000000010B5194886B01749F7
:1026C000016041F61F4141601021816042F20F71AB
:1026D0000024C0E9031480218161FFF788FB18B151
:1026E000622110A000F0F7FC4FF480500090694682
:1026F0000B48FFF724FC18B168210AA000F0EBFC9E
:10270000049404A906480594FFF749FB002803D068
:102710006F2104A000F0DFFC06B010BD00040040F3
:10272000EC0200202E2E2F5372632F74696D2E63DE
:102730000000000010B5194886B01749016041F645
:102740001F410024C0E9011444F61F61C0E90314CD
:1027500080218161FFF74BFB18B1812110A000F0AF
:10276000BAFC4FF48050009069460C48FFF7E7FB35
:1027700018B187210AA000F0AEFC049404A9074810
:102780000594FFF70CFB002803D08E2104A000F075
:10279000A2FC06B010BD0000000800402C03002081
:1027A0002E2E2F5372632F74696D2E63000000006C
:1027B00010B5194886B01749016041F61F41002441
:1027C000C0E9011441F28731C0E90314802181611D
:1027D000FFF70DFB18B1A02110A000F07CFC4FF416
:1027E0008050009069460C48FFF7A9FB18B1A6215C
:1027F0000AA000F070FC049404A907480594FFF7B0
:10280000CEFA002803D0AD2104A000F064FC06B08D
:1028100010BD0000000C00406C0300202E2E2F5332
:1028200072632F74696D2E63000000001CB511489F
:102830000F490024016040F65F11C0E9011444F61D
:102840001F61C16080218161FFF7D1FA18B1BD21FC
:1028500009A000F040FC0094694606480194FFF787
:102860009EFA002803D0C42103A000F034FC1CBD54
:1028700000100040AC0300202E2E2F5372632F74E3
:10288000696D2E63000000000D4810B50B49016012
:102890004FF416514160002181600C22C160C0E9F3
:1028A00004128161C161FFF703FD002805D0BDE876
:1028B00010404C2103A000F00EBC10BD00380140B8
:1028C000EC0300202E2E2F5372632F7573617274E8
:1028D0002E6300000D4810B50B4901604FF41651EE
:1028E0004160002181600C22C160C0E90412816155
:1028F000C161FFF7DDFC002805D0BDE810405F2175
:1029000003A000F0E8BB10BD004400402C040020F0
:102910002E2E2F5372632F75736172742E63000015
:10292000FEE770470907090E002806DA00F00F00DD
:1029300000F1E02080F8141D704700F1E02080F8DD
:10294000001470477047704710B5FEF743FEBDE8AE
:102950001040FFF71EBA000070B594B001250024A6
:102960002804CDE902040226CDE90860009505950A
:1029700001944FF4E010CDE90A046846FFF70CF823
:1029800000B1FEE70F20CDE90E064FF48060CDE9DF
:10299000104002210EA81294FEF7D4FE00B1FEE70B
:1029A000FEF776FF4FF47A71B0FBF1F0FFF7DDF937
:1029B0000420FFF7CDF90448056700221146501E98
:1029C000FEF78EFE14B070BD000042421048016850
:1029D00041F00101016041680E4A11404160016807
:1029E0000D4A11400160016821F4802101604168B5
:1029F00021F4FE014160016821F0A05101604FF413
:102A00007F0181600021C1620449C00308607047F2
:102A1000001002400000FFF0FFFFF6FE08ED00E0AE
:102A20002DE9F0412A48FFF703FB2A4D2A494FF4CC
:102A300073672878294E0328086B47604FF0000021
:102A400021D205F1310400F1140C225C0B6B401C07
:102A5000C0B203F80C200828F5D30A211E48FEF75F
:102A600071FA306B4760002000F11401225C336B77
:102A7000401CC0B25A540828F6D30A211748FEF762
:102A800061FA052020E0134C393400F1140C225C6B
:102A90000B6B401CC0B203F80C200828F5D30A21A8
:102AA0000D48FEF74FFA306B4760002000F114012B
:102AB000225C336B401CC0B25A540828F6D30A215A
:102AC0000648FEF73FFA02202870BDE8F0810000BA
:102AD000AC020020D0000020D00100201402002011
:102AE0002DE9F0415C48FFF7A3FA5C4E4FF4007704
:102AF0005B4C306B4760002000F11401225C336BAB
:102B0000401CC0B25A540828F6D30A215348FEF795
:102B100019FA544D286B4760002000F11401225C23
:102B20002B6B401CC0B25A540828F6D30A214D48DA
:102B3000FEF708FA306B40F20127494C476000204D
:102B4000083400F11401225C336B401CC0B25A54AB
:102B50000828F6D30A214148FEF7F4F9286B4760AC
:102B6000002000F11401225C2B6B401CC0B25A54AF
:102B70000828F6D30A213B48FEF7E4F9306B40F20F
:102B80000227374C47600020103400F11401225C0A
:102B9000336B401CC0B25A540828F6D30A212F4880
:102BA000FEF7D0F9286B4760002000F11401225C89
:102BB0002B6B401CC0B25A540828F6D30A2129486E
:102BC000FEF7C0F9306B40F20327254C4760002028
:102BD000183400F11401225C336B401CC0B25A540B
:102BE0000828F6D30A211D48FEF7ACF9286B476088
:102BF000002000F11401225C2B6B401CC0B25A541F
:102C00000828F6D30A211748FEF79CF9306B4FF4D9
:102C10000177134C47600020203400F11401225C3E
:102C2000336B401CC0B25A540828F6D30A210B4813
:102C3000FEF788F9286B4760002000F11401225C40
:102C40002B6B401CC0B25A540828F6D3BDE8F041A3
:102C50000A210448FEF776B9EC020020D0010020DA
:102C6000D1000020140200202DE9F0412648FFF792
:102C7000DFF9264E40F69977254C306B47600020EF
:102C800000F11401225C336B401CC0B25A54082876
:102C9000F6D30A211D48FEF755F91E4D286B4760F3
:102CA000002000F11401225C2B6B401CC0B25A546E
:102CB0000828F6D30A211748FEF744F9306B4FF481
:102CC0007267134C47600020183C00F11401225C2D
:102CD000336B401CC0B25A540828F6D30A210B4863
:102CE000FEF730F9286B4760002000F11401225CE8
:102CF0002B6B401CC0B25A540828F6D3BDE8F041F3
:102D00000A210448FEF71EB92C030020D001002040
:102D1000110100201402002010B50548FFF788F9C2
:102D2000BDE8104044F220010248FEF781BB0000DC
:102D30006C030020001001400148FFF779B9000042
:102D4000AC030020F0B50268184C194D194E1A4F0B
:102D50004FF0804CA04207D0604505D0A84203D078
:102D6000B04201D0B84203D122F070034A681A433E
:102D7000A04207D0604505D0A84203D0B04201D0A0
:102D8000B84203D122F44073CA681A434B6922F057
:102D90008002134303608A68C2620A688262A042AA
:102DA00001D10969016301214161F0BD002C01409D
:102DB0000004004000080040000C004010B584688A
:102DC00042EA032224F47F440A432243826010BD76
:102DD000826822F070020A4342F007018160704766
:102DE00010B5046A036A23F001030362836923F0C8
:102DF000F00343EA021324F00A020A4383610262E9
:102E000010BD10B5036A23F0100303628469036ADE
:102E100024F4704444EA023223F0A00343EA01118F
:102E20008261016210BD10B5406A0021C185C18474
:102E3000FFF7B5F910BD0168CA6822F49072CA6044
:102E400001684A6922F001024A61202180F83A10A3
:102E5000704710B590F83A10222901D0022010BD19
:102E60008168B1F5805F11D00169002901681FD028
:102E7000496801F07F03816A4A1C82620B70C18D30
:102E8000491E0904090CC18518D02BE00269816A2A
:102E9000002A0268526805D0D2B20A80816A491CB1
:102EA0008162ECE7C2F308020A80816A891CF7E7B5
:102EB0004A68816A4B1C83620A70E0E70168CA684D
:102EC00022F02002CA600168CA6822F48072CA60D7
:102ED00001684A6922F001024A61202180F83A1013
:102EE000FFF79AFA002010BD2DE9F0410446006872
:102EF0000169E26821F4405111430161A168206930
:102F00000143606901432068C26841F20C639A433F
:102F10000A43C26020684169A26921F440711143EB
:102F200041614C4920686426322788423CD1FEF733
:102F3000C5FC00EBC00101EB001061688900B0FB2B
:102F4000F1F5FEF7BBFC00EBC00101EB001061687E
:102F5000B8468900B0FBF1F0B0FBF6F06FF0180155
:102F6000484305EB800107EB0110B0FBF6F000F0E1
:102F7000F005FEF7A3FC00EBC00101EB0010616857
:102F80008900B0FBF1F0B0FBF6F005EB0015FEF7A1
:102F900095FC00EBC00101EB001061688900B0FBFB
:102FA000F1F7FEF78BFC3BE0FEF778FC00EBC0018D
:102FB00001EB001061688900B0FBF1F5FEF76EFCD3
:102FC00000EBC00101EB00106168B8468900B0FB5E
:102FD000F1F0B0FBF6F06FF01801484305EB80010B
:102FE00007EB0110B0FBF6F000F0F005FEF756FC21
:102FF00000EBC00101EB001061688900B0FBF1F04B
:10300000B0FBF6F005EB0015FEF748FC00EBC00145
:1030100001EB001061688900B0FBF1F7FEF73EFCA0
:1030200000EBC00101EB001061688900B0FBF1F01A
:10303000B0FBF6F06FF01801484307EB800108EB96
:103040000110B0FBF6F0216800F00F002844886002
:10305000BDE8F0810038014090F83910212901D0F5
:10306000022070478168B1F5805F016A0BD04A1C6D
:103070000262026809785160C18C491E0904090C7A
:10308000C1840ED017E009880268C1F308015160BD
:1030900001690029016A02D0491C0162ECE7891C20
:1030A000FBE70168CA6822F08002CA600068C16854
:1030B00041F04001C1600020704700000148FFF767
:1030C0006FB80000EC0300200148FFF769B800006A
:1030D0002C040020FEE7FEE702E008C8121F08C12A
:1030E000002AFAD170477047002001E001C1121F89
:1030F000002AFBD170470000FEF774FAFFF72CFCA2
:10310000FFF730FAFFF7D6F9FFF700FAFFF7BCFB3D
:10311000FFF7D2FAFFF76AFAFFF7DCFBFFF790FA46
:10312000FFF708FBFFF744FBFFF780FBFDF7E8F82C
:1031300001220C490C48FFF745F90A490122491CB4
:103140000A48FFF73FF90A48FEF7D8FE0948FEF79C
:10315000D5FE4FF4C8742046FEF774F8FDF7A8F9C1
:10316000F9E7000007000020EC0300202C040020F9
:103170006C030020AC0300200000000000000000F1
:10318000010203040607080900000000010203040D
:10319000B0310008000000202C010000900200085F
:1031A000743200082C01002044070000E8300008B9
:1031B000A15B030108620262064B0206104B010488
:1031C0002010144669727374206C6576656C206CEF
:1031D0006F636B696E67780A5365636F6E646172C3
:1031E0007912380C52656C656173652074686514DA
:1031F0001128105475726E206F6E206D6F6E697499
:103200006F72244913AB666614780E4C433A4145FD
:103210003435373436370D0A0E4C3836420E1C45DD
:1032200039311C9B37320E1C3837360EA114280159
:103230003116E803E8038912012A9FB011123512F2
:10324000A912C61A310A124A121E14B8277D148C0C
:1032500007842D040505FF01226639085AAA0828AB
:103260000822160A21012101F529F182100400A289
:043270004A0400000C
:04000005080001519D
:00000001FF
